{
  "contractName": "BindingContract",
  "abi": [
    {
      "inputs": [],
      "stateMutability": "nonpayable",
      "type": "constructor"
    },
    {
      "inputs": [
        {
          "internalType": "uint64",
          "name": "",
          "type": "uint64"
        }
      ],
      "name": "bindingContracts",
      "outputs": [
        {
          "internalType": "uint64",
          "name": "bindingId",
          "type": "uint64"
        },
        {
          "internalType": "bytes32",
          "name": "name",
          "type": "bytes32"
        },
        {
          "internalType": "uint64",
          "name": "startDate",
          "type": "uint64"
        },
        {
          "internalType": "uint64",
          "name": "endDate",
          "type": "uint64"
        },
        {
          "internalType": "address",
          "name": "municipalityAddress",
          "type": "address"
        },
        {
          "internalType": "bool",
          "name": "isCanceled",
          "type": "bool"
        },
        {
          "internalType": "bool",
          "name": "isOpened",
          "type": "bool"
        },
        {
          "internalType": "uint64",
          "name": "_winnerId",
          "type": "uint64"
        },
        {
          "internalType": "string",
          "name": "tenderText",
          "type": "string"
        }
      ],
      "stateMutability": "view",
      "type": "function",
      "constant": true
    },
    {
      "inputs": [
        {
          "internalType": "uint64",
          "name": "",
          "type": "uint64"
        }
      ],
      "name": "bindingRequests",
      "outputs": [
        {
          "internalType": "uint64",
          "name": "requestId",
          "type": "uint64"
        },
        {
          "internalType": "uint64",
          "name": "companyId",
          "type": "uint64"
        },
        {
          "internalType": "uint32",
          "name": "price",
          "type": "uint32"
        },
        {
          "internalType": "uint64",
          "name": "bindingId",
          "type": "uint64"
        },
        {
          "internalType": "address",
          "name": "companyAddress",
          "type": "address"
        },
        {
          "internalType": "bool",
          "name": "isWinner",
          "type": "bool"
        },
        {
          "internalType": "string",
          "name": "text",
          "type": "string"
        },
        {
          "internalType": "uint64",
          "name": "startDate",
          "type": "uint64"
        },
        {
          "internalType": "uint64",
          "name": "endDate",
          "type": "uint64"
        }
      ],
      "stateMutability": "view",
      "type": "function",
      "constant": true
    },
    {
      "inputs": [
        {
          "internalType": "address",
          "name": "",
          "type": "address"
        }
      ],
      "name": "company",
      "outputs": [
        {
          "internalType": "uint64",
          "name": "companyId",
          "type": "uint64"
        },
        {
          "internalType": "address",
          "name": "companyAddress",
          "type": "address"
        },
        {
          "internalType": "bytes16",
          "name": "name",
          "type": "bytes16"
        },
        {
          "internalType": "bytes16",
          "name": "phoneNo",
          "type": "bytes16"
        }
      ],
      "stateMutability": "view",
      "type": "function",
      "constant": true
    },
    {
      "inputs": [
        {
          "internalType": "address",
          "name": "",
          "type": "address"
        }
      ],
      "name": "municipality",
      "outputs": [
        {
          "internalType": "uint64",
          "name": "municipalityId",
          "type": "uint64"
        },
        {
          "internalType": "address",
          "name": "municipalityAddress",
          "type": "address"
        },
        {
          "internalType": "bytes16",
          "name": "name",
          "type": "bytes16"
        },
        {
          "internalType": "bytes16",
          "name": "phoneNo",
          "type": "bytes16"
        }
      ],
      "stateMutability": "view",
      "type": "function",
      "constant": true
    },
    {
      "inputs": [
        {
          "internalType": "bytes16",
          "name": "_name",
          "type": "bytes16"
        },
        {
          "internalType": "bytes16",
          "name": "_phoneNo",
          "type": "bytes16"
        },
        {
          "internalType": "uint8",
          "name": "_type",
          "type": "uint8"
        }
      ],
      "name": "signUp",
      "outputs": [],
      "stateMutability": "payable",
      "type": "function",
      "payable": true
    },
    {
      "inputs": [
        {
          "internalType": "bytes32",
          "name": "_name",
          "type": "bytes32"
        },
        {
          "internalType": "uint64",
          "name": "_startDate",
          "type": "uint64"
        },
        {
          "internalType": "uint64",
          "name": "_endDate",
          "type": "uint64"
        },
        {
          "internalType": "bytes16[]",
          "name": "_details",
          "type": "bytes16[]"
        },
        {
          "internalType": "uint8[]",
          "name": "_points",
          "type": "uint8[]"
        },
        {
          "internalType": "string",
          "name": "_tenderText",
          "type": "string"
        }
      ],
      "name": "createBindingContract",
      "outputs": [],
      "stateMutability": "payable",
      "type": "function",
      "payable": true
    },
    {
      "inputs": [
        {
          "internalType": "uint64",
          "name": "bindingId",
          "type": "uint64"
        }
      ],
      "name": "getBindingById",
      "outputs": [
        {
          "components": [
            {
              "internalType": "uint64",
              "name": "bindingId",
              "type": "uint64"
            },
            {
              "internalType": "bytes32",
              "name": "name",
              "type": "bytes32"
            },
            {
              "internalType": "uint64",
              "name": "startDate",
              "type": "uint64"
            },
            {
              "internalType": "uint64",
              "name": "endDate",
              "type": "uint64"
            },
            {
              "internalType": "bytes16[]",
              "name": "details",
              "type": "bytes16[]"
            },
            {
              "internalType": "uint8[]",
              "name": "points",
              "type": "uint8[]"
            },
            {
              "internalType": "address",
              "name": "municipalityAddress",
              "type": "address"
            },
            {
              "internalType": "bool",
              "name": "isCanceled",
              "type": "bool"
            },
            {
              "internalType": "bool",
              "name": "isOpened",
              "type": "bool"
            },
            {
              "internalType": "uint64",
              "name": "_winnerId",
              "type": "uint64"
            },
            {
              "internalType": "string",
              "name": "tenderText",
              "type": "string"
            }
          ],
          "internalType": "struct BindingContract.BindingData",
          "name": "",
          "type": "tuple"
        }
      ],
      "stateMutability": "view",
      "type": "function",
      "constant": true
    },
    {
      "inputs": [
        {
          "internalType": "uint8",
          "name": "_bidType",
          "type": "uint8"
        },
        {
          "internalType": "address",
          "name": "_address",
          "type": "address"
        }
      ],
      "name": "getBindings",
      "outputs": [
        {
          "components": [
            {
              "internalType": "uint64",
              "name": "bindingId",
              "type": "uint64"
            },
            {
              "internalType": "bytes32",
              "name": "name",
              "type": "bytes32"
            },
            {
              "internalType": "uint64",
              "name": "startDate",
              "type": "uint64"
            },
            {
              "internalType": "uint64",
              "name": "endDate",
              "type": "uint64"
            },
            {
              "internalType": "bytes16[]",
              "name": "details",
              "type": "bytes16[]"
            },
            {
              "internalType": "uint8[]",
              "name": "points",
              "type": "uint8[]"
            },
            {
              "internalType": "address",
              "name": "municipalityAddress",
              "type": "address"
            },
            {
              "internalType": "bool",
              "name": "isCanceled",
              "type": "bool"
            },
            {
              "internalType": "bool",
              "name": "isOpened",
              "type": "bool"
            },
            {
              "internalType": "uint64",
              "name": "_winnerId",
              "type": "uint64"
            },
            {
              "internalType": "string",
              "name": "tenderText",
              "type": "string"
            }
          ],
          "internalType": "struct BindingContract.BindingData[]",
          "name": "",
          "type": "tuple[]"
        }
      ],
      "stateMutability": "view",
      "type": "function",
      "constant": true
    },
    {
      "inputs": [
        {
          "internalType": "uint64",
          "name": "_bindingId",
          "type": "uint64"
        },
        {
          "internalType": "uint64",
          "name": "_requestId",
          "type": "uint64"
        },
        {
          "internalType": "uint8",
          "name": "_type",
          "type": "uint8"
        }
      ],
      "name": "openCanceleTender",
      "outputs": [],
      "stateMutability": "payable",
      "type": "function",
      "payable": true
    },
    {
      "inputs": [
        {
          "internalType": "uint64",
          "name": "bindingId",
          "type": "uint64"
        }
      ],
      "name": "isActive",
      "outputs": [
        {
          "internalType": "bool",
          "name": "",
          "type": "bool"
        }
      ],
      "stateMutability": "view",
      "type": "function",
      "constant": true
    },
    {
      "inputs": [
        {
          "internalType": "address",
          "name": "_address",
          "type": "address"
        },
        {
          "internalType": "uint8",
          "name": "_type",
          "type": "uint8"
        }
      ],
      "name": "getProfile",
      "outputs": [
        {
          "internalType": "uint64",
          "name": "companyId",
          "type": "uint64"
        },
        {
          "internalType": "bytes16",
          "name": "name",
          "type": "bytes16"
        },
        {
          "internalType": "bytes16",
          "name": "phoneNo",
          "type": "bytes16"
        }
      ],
      "stateMutability": "view",
      "type": "function",
      "constant": true
    },
    {
      "inputs": [
        {
          "internalType": "uint64",
          "name": "_companyId",
          "type": "uint64"
        },
        {
          "internalType": "uint32",
          "name": "_price",
          "type": "uint32"
        },
        {
          "internalType": "uint64",
          "name": "_bindingId",
          "type": "uint64"
        },
        {
          "internalType": "bytes16[]",
          "name": "_details",
          "type": "bytes16[]"
        },
        {
          "internalType": "string",
          "name": "_text",
          "type": "string"
        },
        {
          "internalType": "uint64",
          "name": "_startDate",
          "type": "uint64"
        },
        {
          "internalType": "uint64",
          "name": "_endDate",
          "type": "uint64"
        }
      ],
      "name": "requestToBinding",
      "outputs": [],
      "stateMutability": "payable",
      "type": "function",
      "payable": true
    },
    {
      "inputs": [
        {
          "internalType": "uint64",
          "name": "_requestId",
          "type": "uint64"
        }
      ],
      "name": "getBindingRequestByRequestId",
      "outputs": [
        {
          "components": [
            {
              "internalType": "uint64",
              "name": "requestId",
              "type": "uint64"
            },
            {
              "internalType": "uint64",
              "name": "companyId",
              "type": "uint64"
            },
            {
              "internalType": "uint32",
              "name": "price",
              "type": "uint32"
            },
            {
              "internalType": "uint64",
              "name": "bindingId",
              "type": "uint64"
            },
            {
              "internalType": "bytes16[]",
              "name": "details",
              "type": "bytes16[]"
            },
            {
              "internalType": "address",
              "name": "companyAddress",
              "type": "address"
            },
            {
              "internalType": "bool",
              "name": "isWinner",
              "type": "bool"
            },
            {
              "internalType": "string",
              "name": "text",
              "type": "string"
            },
            {
              "internalType": "uint64",
              "name": "startDate",
              "type": "uint64"
            },
            {
              "internalType": "uint64",
              "name": "endDate",
              "type": "uint64"
            }
          ],
          "internalType": "struct BindingContract.RequestBinding",
          "name": "",
          "type": "tuple"
        }
      ],
      "stateMutability": "view",
      "type": "function",
      "constant": true
    },
    {
      "inputs": [],
      "name": "getUserType",
      "outputs": [
        {
          "internalType": "int8",
          "name": "",
          "type": "int8"
        }
      ],
      "stateMutability": "view",
      "type": "function",
      "constant": true
    },
    {
      "inputs": [
        {
          "internalType": "uint64",
          "name": "_type",
          "type": "uint64"
        }
      ],
      "name": "getCountOf",
      "outputs": [
        {
          "internalType": "uint64",
          "name": "",
          "type": "uint64"
        }
      ],
      "stateMutability": "view",
      "type": "function",
      "constant": true
    },
    {
      "inputs": [
        {
          "internalType": "address",
          "name": "_companyAddress",
          "type": "address"
        },
        {
          "internalType": "uint64",
          "name": "_bindingId",
          "type": "uint64"
        }
      ],
      "name": "getContractsRequest",
      "outputs": [
        {
          "components": [
            {
              "internalType": "uint64",
              "name": "requestId",
              "type": "uint64"
            },
            {
              "internalType": "uint64",
              "name": "companyId",
              "type": "uint64"
            },
            {
              "internalType": "uint32",
              "name": "price",
              "type": "uint32"
            },
            {
              "internalType": "uint64",
              "name": "bindingId",
              "type": "uint64"
            },
            {
              "internalType": "bytes16[]",
              "name": "details",
              "type": "bytes16[]"
            },
            {
              "internalType": "address",
              "name": "companyAddress",
              "type": "address"
            },
            {
              "internalType": "bool",
              "name": "isWinner",
              "type": "bool"
            },
            {
              "internalType": "string",
              "name": "text",
              "type": "string"
            },
            {
              "internalType": "uint64",
              "name": "startDate",
              "type": "uint64"
            },
            {
              "internalType": "uint64",
              "name": "endDate",
              "type": "uint64"
            }
          ],
          "internalType": "struct BindingContract.RequestBinding[]",
          "name": "",
          "type": "tuple[]"
        }
      ],
      "stateMutability": "view",
      "type": "function",
      "constant": true
    },
    {
      "inputs": [
        {
          "internalType": "uint8",
          "name": "_userType",
          "type": "uint8"
        },
        {
          "internalType": "uint8",
          "name": "_editType",
          "type": "uint8"
        },
        {
          "internalType": "bytes16",
          "name": "_value",
          "type": "bytes16"
        }
      ],
      "name": "editInfo",
      "outputs": [],
      "stateMutability": "payable",
      "type": "function",
      "payable": true
    }
  ],
  "bytecode": "0x608060405234801561001057600080fd5b5060008060006101000a81548167ffffffffffffffff021916908367ffffffffffffffff16021790555060008060086101000a81548167ffffffffffffffff021916908367ffffffffffffffff16021790555060008060106101000a81548167ffffffffffffffff021916908367ffffffffffffffff16021790555060008060186101000a81548167ffffffffffffffff021916908367ffffffffffffffff160217905550615fef80620000c56000396000f3fe6080604052600436106100fe5760003560e01c80633d86dea411610095578063c3e0f45111610064578063c3e0f45114610377578063c44f45fe14610393578063c5cd8e1e146103d3578063e6125de7146103ef578063fb8098391461042c576100fe565b80633d86dea4146102ac57806341990077146102f15780637a78bfb41461031c578063c08580851461035b576100fe565b8063280486e1116100d1578063280486e1146101d957806331013f9a1461021657806334abcac91461023257806339d13f301461026f576100fe565b8063137e125c146101035780631a41a07b1461011f5780631a4d0aae1461015c578063232dd1571461019c575b600080fd5b61011d60048036038101906101189190614ee9565b610471565b005b34801561012b57600080fd5b5061014660048036038101906101419190614fca565b6107aa565b6040516101539190615006565b60405180910390f35b34801561016857600080fd5b50610183600480360381019061017e919061507f565b610877565b60405161019394939291906150ca565b60405180910390f35b3480156101a857600080fd5b506101c360048036038101906101be9190614fca565b6108f5565b6040516101d09190615458565b60405180910390f35b3480156101e557600080fd5b5061020060048036038101906101fb919061547a565b610c33565b60405161020d919061567c565b60405180910390f35b610230600480360381019061022b919061569e565b6114e0565b005b34801561023e57600080fd5b5061025960048036038101906102549190614fca565b611a25565b6040516102669190615700565b60405180910390f35b34801561027b57600080fd5b5061029660048036038101906102919190614fca565b611b10565b6040516102a391906157fc565b60405180910390f35b3480156102b857600080fd5b506102d360048036038101906102ce9190614fca565b611e54565b6040516102e899989796959493929190615877565b60405180910390f35b3480156102fd57600080fd5b50610306611fb4565b6040516103139190615927565b60405180910390f35b34801561032857600080fd5b50610343600480360381019061033e9190615942565b6120be565b60405161035293929190615982565b60405180910390f35b610375600480360381019061037091906159b9565b6122d5565b005b610391600480360381019061038c9190615a38565b6126e3565b005b34801561039f57600080fd5b506103ba60048036038101906103b5919061507f565b612bec565b6040516103ca94939291906150ca565b60405180910390f35b6103ed60048036038101906103e89190615b12565b612c6a565b005b3480156103fb57600080fd5b5061041660048036038101906104119190615b65565b612e5a565b6040516104239190615d64565b60405180910390f35b34801561043857600080fd5b50610453600480360381019061044e9190614fca565b614635565b60405161046899989796959493929190615d95565b60405180910390f35b8151835114801561048c57506000610487611fb4565b60000b145b6104cb576040517f08c379a00000000000000000000000000000000000000000000000000000000081526004016104c290615e75565b60405180910390fd5b60008081819054906101000a900467ffffffffffffffff16809291906104f090615ec4565b91906101000a81548167ffffffffffffffff021916908367ffffffffffffffff1602179055505060405180610160016040528060008054906101000a900467ffffffffffffffff1667ffffffffffffffff1681526020018781526020018667ffffffffffffffff1681526020018567ffffffffffffffff1681526020018481526020018381526020013373ffffffffffffffffffffffffffffffffffffffff168152602001600015158152602001600015158152602001600067ffffffffffffffff16815260200182815250600360008060009054906101000a900467ffffffffffffffff1667ffffffffffffffff1667ffffffffffffffff16815260200190815260200160002060008201518160000160006101000a81548167ffffffffffffffff021916908367ffffffffffffffff1602179055506020820151816001015560408201518160020160006101000a81548167ffffffffffffffff021916908367ffffffffffffffff16021790555060608201518160020160086101000a81548167ffffffffffffffff021916908367ffffffffffffffff16021790555060808201518160030190805190602001906106ab9291906147ac565b5060a08201518160040190805190602001906106c8929190614871565b5060c08201518160050160006101000a81548173ffffffffffffffffffffffffffffffffffffffff021916908373ffffffffffffffffffffffffffffffffffffffff16021790555060e08201518160050160146101000a81548160ff0219169083151502179055506101008201518160050160156101000a81548160ff0219169083151502179055506101208201518160050160166101000a81548167ffffffffffffffff021916908367ffffffffffffffff16021790555061014082015181600601908051906020019061079e929190614918565b50905050505050505050565b6000808267ffffffffffffffff1614156107dc57600060189054906101000a900467ffffffffffffffff169050610872565b60018267ffffffffffffffff16141561080d57600060109054906101000a900467ffffffffffffffff169050610872565b60028267ffffffffffffffff16141561083c5760008054906101000a900467ffffffffffffffff169050610872565b60038267ffffffffffffffff16141561086d57600060089054906101000a900467ffffffffffffffff169050610872565b600090505b919050565b60026020528060005260406000206000915090508060000160009054906101000a900467ffffffffffffffff16908060000160089054906101000a900473ffffffffffffffffffffffffffffffffffffffff16908060010160009054906101000a900460801b908060010160109054906101000a900460801b905084565b6108fd61499e565b600360008367ffffffffffffffff1667ffffffffffffffff168152602001908152602001600020604051806101600160405290816000820160009054906101000a900467ffffffffffffffff1667ffffffffffffffff1667ffffffffffffffff168152602001600182015481526020016002820160009054906101000a900467ffffffffffffffff1667ffffffffffffffff1667ffffffffffffffff1681526020016002820160089054906101000a900467ffffffffffffffff1667ffffffffffffffff1667ffffffffffffffff16815260200160038201805480602002602001604051908101604052809291908181526020018280548015610a5557602002820191906000526020600020906000905b82829054906101000a900460801b6fffffffffffffffffffffffffffffffff191681526020019060100190602082600f01049283019260010382029150808411610a0e5790505b5050505050815260200160048201805480602002602001604051908101604052809291908181526020018280548015610ad357602002820191906000526020600020906000905b82829054906101000a900460ff1660ff1681526020019060010190602082600001049283019260010382029150808411610a9c5790505b505050505081526020016005820160009054906101000a900473ffffffffffffffffffffffffffffffffffffffff1673ffffffffffffffffffffffffffffffffffffffff1673ffffffffffffffffffffffffffffffffffffffff1681526020016005820160149054906101000a900460ff161515151581526020016005820160159054906101000a900460ff161515151581526020016005820160169054906101000a900467ffffffffffffffff1667ffffffffffffffff1667ffffffffffffffff168152602001600682018054610baa90615f24565b80601f0160208091040260200160405190810160405280929190818152602001828054610bd690615f24565b8015610c235780601f10610bf857610100808354040283529160200191610c23565b820191906000526020600020905b815481529060010190602001808311610c0657829003601f168201915b5050505050815250509050919050565b6060610c3e82611a25565b6114d95760008060089054906101000a900467ffffffffffffffff1667ffffffffffffffff1667ffffffffffffffff811115610c7d57610c7c614b9d565b5b604051908082528060200260200182016040528015610cb657816020015b610ca3614a3d565b815260200190600190039081610c9b5790505b50905060008080600190505b600060089054906101000a900467ffffffffffffffff1667ffffffffffffffff168167ffffffffffffffff16116114cd578173ffffffffffffffffffffffffffffffffffffffff168773ffffffffffffffffffffffffffffffffffffffff1614158015610d39575060008667ffffffffffffffff16145b8015610dba57508673ffffffffffffffffffffffffffffffffffffffff16600460008367ffffffffffffffff1667ffffffffffffffff16815260200190815260200160002060020160009054906101000a900473ffffffffffffffffffffffffffffffffffffffff1673ffffffffffffffffffffffffffffffffffffffff16145b156110ea57600460008267ffffffffffffffff1667ffffffffffffffff168152602001908152602001600020604051806101400160405290816000820160009054906101000a900467ffffffffffffffff1667ffffffffffffffff1667ffffffffffffffff1681526020016000820160089054906101000a900467ffffffffffffffff1667ffffffffffffffff1667ffffffffffffffff1681526020016000820160109054906101000a900463ffffffff1663ffffffff1663ffffffff1681526020016000820160149054906101000a900467ffffffffffffffff1667ffffffffffffffff1667ffffffffffffffff16815260200160018201805480602002602001604051908101604052809291908181526020018280548015610f3357602002820191906000526020600020906000905b82829054906101000a900460801b6fffffffffffffffffffffffffffffffff191681526020019060100190602082600f01049283019260010382029150808411610eec5790505b505050505081526020016002820160009054906101000a900473ffffffffffffffffffffffffffffffffffffffff1673ffffffffffffffffffffffffffffffffffffffff1673ffffffffffffffffffffffffffffffffffffffff1681526020016002820160149054906101000a900460ff16151515158152602001600382018054610fbd90615f24565b80601f0160208091040260200160405190810160405280929190818152602001828054610fe990615f24565b80156110365780601f1061100b57610100808354040283529160200191611036565b820191906000526020600020905b81548152906001019060200180831161101957829003601f168201915b505050505081526020016004820160009054906101000a900467ffffffffffffffff1667ffffffffffffffff1667ffffffffffffffff1681526020016004820160089054906101000a900467ffffffffffffffff1667ffffffffffffffff1667ffffffffffffffff1681525050846001836110b19190615f56565b67ffffffffffffffff16815181106110cc576110cb615f8a565b5b602002602001018190525082806110e290615ec4565b9350506114ba565b8173ffffffffffffffffffffffffffffffffffffffff168773ffffffffffffffffffffffffffffffffffffffff16148015611130575060008667ffffffffffffffff1614155b801561118d57508567ffffffffffffffff16600460008367ffffffffffffffff1667ffffffffffffffff16815260200190815260200160002060000160149054906101000a900467ffffffffffffffff1667ffffffffffffffff16145b156114b957600460008267ffffffffffffffff1667ffffffffffffffff168152602001908152602001600020604051806101400160405290816000820160009054906101000a900467ffffffffffffffff1667ffffffffffffffff1667ffffffffffffffff1681526020016000820160089054906101000a900467ffffffffffffffff1667ffffffffffffffff1667ffffffffffffffff1681526020016000820160109054906101000a900463ffffffff1663ffffffff1663ffffffff1681526020016000820160149054906101000a900467ffffffffffffffff1667ffffffffffffffff1667ffffffffffffffff1681526020016001820180548060200260200160405190810160405280929190818152602001828054801561130657602002820191906000526020600020906000905b82829054906101000a900460801b6fffffffffffffffffffffffffffffffff191681526020019060100190602082600f010492830192600103820291508084116112bf5790505b505050505081526020016002820160009054906101000a900473ffffffffffffffffffffffffffffffffffffffff1673ffffffffffffffffffffffffffffffffffffffff1673ffffffffffffffffffffffffffffffffffffffff1681526020016002820160149054906101000a900460ff1615151515815260200160038201805461139090615f24565b80601f01602080910402602001604051908101604052809291908181526020018280546113bc90615f24565b80156114095780601f106113de57610100808354040283529160200191611409565b820191906000526020600020905b8154815290600101906020018083116113ec57829003601f168201915b505050505081526020016004820160009054906101000a900467ffffffffffffffff1667ffffffffffffffff1667ffffffffffffffff1681526020016004820160089054906101000a900467ffffffffffffffff1667ffffffffffffffff1667ffffffffffffffff1681525050846001836114849190615f56565b67ffffffffffffffff168151811061149f5761149e615f8a565b5b602002602001018190525082806114b590615ec4565b9350505b5b80806114c590615ec4565b915050610cc2565b508293505050506114da565b5b92915050565b60008054906101000a900467ffffffffffffffff1667ffffffffffffffff168367ffffffffffffffff161115801561158d5750600360008467ffffffffffffffff1667ffffffffffffffff16815260200190815260200160002060050160009054906101000a900473ffffffffffffffffffffffffffffffffffffffff1673ffffffffffffffffffffffffffffffffffffffff163373ffffffffffffffffffffffffffffffffffffffff16145b80156115ce5750600360008467ffffffffffffffff1667ffffffffffffffff16815260200190815260200160002060050160159054906101000a900460ff16155b801561160f5750600360008467ffffffffffffffff1667ffffffffffffffff16815260200190815260200160002060050160149054906101000a900460ff16155b61164e576040517f08c379a000000000000000000000000000000000000000000000000000000000815260040161164590615e75565b60405180910390fd5b60008160ff1614156119cf5760036000600460008567ffffffffffffffff1667ffffffffffffffff16815260200190815260200160002060000160149054906101000a900467ffffffffffffffff1667ffffffffffffffff1667ffffffffffffffff16815260200190815260200160002060050160009054906101000a900473ffffffffffffffffffffffffffffffffffffffff1673ffffffffffffffffffffffffffffffffffffffff163373ffffffffffffffffffffffffffffffffffffffff16148015611790575060036000600460008567ffffffffffffffff1667ffffffffffffffff16815260200190815260200160002060000160149054906101000a900467ffffffffffffffff1667ffffffffffffffff1667ffffffffffffffff16815260200190815260200160002060050160159054906101000a900460ff16155b801561180f575060036000600460008567ffffffffffffffff1667ffffffffffffffff16815260200190815260200160002060000160149054906101000a900467ffffffffffffffff1667ffffffffffffffff1667ffffffffffffffff16815260200190815260200160002060050160149054906101000a900460ff16155b80156118455750600060089054906101000a900467ffffffffffffffff1667ffffffffffffffff168267ffffffffffffffff1611155b80156118a257508267ffffffffffffffff16600460008467ffffffffffffffff1667ffffffffffffffff16815260200190815260200160002060000160149054906101000a900467ffffffffffffffff1667ffffffffffffffff16145b80156118b457506118b283611a25565b155b6118f3576040517f08c379a00000000000000000000000000000000000000000000000000000000081526004016118ea90615e75565b60405180910390fd5b6001600360008567ffffffffffffffff1667ffffffffffffffff16815260200190815260200160002060050160156101000a81548160ff02191690831515021790555081600360008567ffffffffffffffff1667ffffffffffffffff16815260200190815260200160002060050160166101000a81548167ffffffffffffffff021916908367ffffffffffffffff1602179055506001600460008467ffffffffffffffff1667ffffffffffffffff16815260200190815260200160002060020160146101000a81548160ff021916908315150217905550611a20565b60018160ff161415611a1f576001600360008567ffffffffffffffff1667ffffffffffffffff16815260200190815260200160002060050160146101000a81548160ff0219169083151502179055505b5b505050565b60008060009054906101000a900467ffffffffffffffff1667ffffffffffffffff168267ffffffffffffffff1611611b065742600360008467ffffffffffffffff1667ffffffffffffffff16815260200190815260200160002060020160089054906101000a900467ffffffffffffffff1667ffffffffffffffff1610158015611af7575042600360008467ffffffffffffffff1667ffffffffffffffff16815260200190815260200160002060020160009054906101000a900467ffffffffffffffff1667ffffffffffffffff1611155b15611b055760019050611b0b565b5b600090505b919050565b611b18614a3d565b611b5f600460008467ffffffffffffffff1667ffffffffffffffff16815260200190815260200160002060000160149054906101000a900467ffffffffffffffff16611a25565b611e4e57600460008367ffffffffffffffff1667ffffffffffffffff168152602001908152602001600020604051806101400160405290816000820160009054906101000a900467ffffffffffffffff1667ffffffffffffffff1667ffffffffffffffff1681526020016000820160089054906101000a900467ffffffffffffffff1667ffffffffffffffff1667ffffffffffffffff1681526020016000820160109054906101000a900463ffffffff1663ffffffff1663ffffffff1681526020016000820160149054906101000a900467ffffffffffffffff1667ffffffffffffffff1667ffffffffffffffff16815260200160018201805480602002602001604051908101604052809291908181526020018280548015611cd757602002820191906000526020600020906000905b82829054906101000a900460801b6fffffffffffffffffffffffffffffffff191681526020019060100190602082600f01049283019260010382029150808411611c905790505b505050505081526020016002820160009054906101000a900473ffffffffffffffffffffffffffffffffffffffff1673ffffffffffffffffffffffffffffffffffffffff1673ffffffffffffffffffffffffffffffffffffffff1681526020016002820160149054906101000a900460ff16151515158152602001600382018054611d6190615f24565b80601f0160208091040260200160405190810160405280929190818152602001828054611d8d90615f24565b8015611dda5780601f10611daf57610100808354040283529160200191611dda565b820191906000526020600020905b815481529060010190602001808311611dbd57829003601f168201915b505050505081526020016004820160009054906101000a900467ffffffffffffffff1667ffffffffffffffff1667ffffffffffffffff1681526020016004820160089054906101000a900467ffffffffffffffff1667ffffffffffffffff1667ffffffffffffffff16815250509050611e4f565b5b919050565b60036020528060005260406000206000915090508060000160009054906101000a900467ffffffffffffffff16908060010154908060020160009054906101000a900467ffffffffffffffff16908060020160089054906101000a900467ffffffffffffffff16908060050160009054906101000a900473ffffffffffffffffffffffffffffffffffffffff16908060050160149054906101000a900460ff16908060050160159054906101000a900460ff16908060050160169054906101000a900467ffffffffffffffff1690806006018054611f3190615f24565b80601f0160208091040260200160405190810160405280929190818152602001828054611f5d90615f24565b8015611faa5780601f10611f7f57610100808354040283529160200191611faa565b820191906000526020600020905b815481529060010190602001808311611f8d57829003601f168201915b5050505050905089565b600080600260003373ffffffffffffffffffffffffffffffffffffffff1673ffffffffffffffffffffffffffffffffffffffff16815260200190815260200160002060000160009054906101000a900467ffffffffffffffff1667ffffffffffffffff161461202657600090506120bb565b6000600160003373ffffffffffffffffffffffffffffffffffffffff1673ffffffffffffffffffffffffffffffffffffffff16815260200190815260200160002060000160009054906101000a900467ffffffffffffffff1667ffffffffffffffff161461209757600190506120bb565b7fffffffffffffffffffffffffffffffffffffffffffffffffffffffffffffffff90505b90565b6000806000808460ff1614156121d057600260008673ffffffffffffffffffffffffffffffffffffffff1673ffffffffffffffffffffffffffffffffffffffff16815260200190815260200160002060000160009054906101000a900467ffffffffffffffff16600260008773ffffffffffffffffffffffffffffffffffffffff1673ffffffffffffffffffffffffffffffffffffffff16815260200190815260200160002060010160009054906101000a900460801b600260008873ffffffffffffffffffffffffffffffffffffffff1673ffffffffffffffffffffffffffffffffffffffff16815260200190815260200160002060010160109054906101000a900460801b9250925092506122ce565b600160008673ffffffffffffffffffffffffffffffffffffffff1673ffffffffffffffffffffffffffffffffffffffff16815260200190815260200160002060000160009054906101000a900467ffffffffffffffff16600160008773ffffffffffffffffffffffffffffffffffffffff1673ffffffffffffffffffffffffffffffffffffffff16815260200190815260200160002060010160009054906101000a900460801b600160008873ffffffffffffffffffffffffffffffffffffffff1673ffffffffffffffffffffffffffffffffffffffff16815260200190815260200160002060010160109054906101000a900460801b9250925092505b9250925092565b7fffffffffffffffffffffffffffffffffffffffffffffffffffffffffffffffff6122fe611fb4565b60000b14156126de5760008160ff1614156124fa576000601881819054906101000a900467ffffffffffffffff168092919061233990615ec4565b91906101000a81548167ffffffffffffffff021916908367ffffffffffffffff160217905550506040518060800160405280600060189054906101000a900467ffffffffffffffff1667ffffffffffffffff1681526020013373ffffffffffffffffffffffffffffffffffffffff168152602001846fffffffffffffffffffffffffffffffff19168152602001836fffffffffffffffffffffffffffffffff1916815250600260003373ffffffffffffffffffffffffffffffffffffffff1673ffffffffffffffffffffffffffffffffffffffff16815260200190815260200160002060008201518160000160006101000a81548167ffffffffffffffff021916908367ffffffffffffffff16021790555060208201518160000160086101000a81548173ffffffffffffffffffffffffffffffffffffffff021916908373ffffffffffffffffffffffffffffffffffffffff16021790555060408201518160010160006101000a8154816fffffffffffffffffffffffffffffffff021916908360801c021790555060608201518160010160106101000a8154816fffffffffffffffffffffffffffffffff021916908360801c02179055509050506126dd565b6000601081819054906101000a900467ffffffffffffffff168092919061252090615ec4565b91906101000a81548167ffffffffffffffff021916908367ffffffffffffffff160217905550506040518060800160405280600060109054906101000a900467ffffffffffffffff1667ffffffffffffffff1681526020013373ffffffffffffffffffffffffffffffffffffffff168152602001846fffffffffffffffffffffffffffffffff19168152602001836fffffffffffffffffffffffffffffffff1916815250600160003373ffffffffffffffffffffffffffffffffffffffff1673ffffffffffffffffffffffffffffffffffffffff16815260200190815260200160002060008201518160000160006101000a81548167ffffffffffffffff021916908367ffffffffffffffff16021790555060208201518160000160086101000a81548173ffffffffffffffffffffffffffffffffffffffff021916908373ffffffffffffffffffffffffffffffffffffffff16021790555060408201518160010160006101000a8154816fffffffffffffffffffffffffffffffff021916908360801c021790555060608201518160010160106101000a8154816fffffffffffffffffffffffffffffffff021916908360801c02179055509050505b5b505050565b600080600190505b600060089054906101000a900467ffffffffffffffff1667ffffffffffffffff168167ffffffffffffffff16116127ef578667ffffffffffffffff16600460008367ffffffffffffffff1667ffffffffffffffff16815260200190815260200160002060000160149054906101000a900467ffffffffffffffff1667ffffffffffffffff161480156127ce57508867ffffffffffffffff16600460008367ffffffffffffffff1667ffffffffffffffff16815260200190815260200160002060000160089054906101000a900467ffffffffffffffff1667ffffffffffffffff16145b156127dc57600191506127ef565b80806127e790615ec4565b9150506126eb565b50801580156128335750600360008767ffffffffffffffff1667ffffffffffffffff16815260200190815260200160002060050160159054906101000a900460ff16155b80156128745750600360008767ffffffffffffffff1667ffffffffffffffff16815260200190815260200160002060050160149054906101000a900460ff16155b8015612885575061288486611a25565b5b801561289f5750612895866108f5565b6080015151855111155b80156128b5575060016128b0611fb4565b60000b145b6128f4576040517f08c379a00000000000000000000000000000000000000000000000000000000081526004016128eb90615e75565b60405180910390fd5b6000600881819054906101000a900467ffffffffffffffff168092919061291a90615ec4565b91906101000a81548167ffffffffffffffff021916908367ffffffffffffffff16021790555050604051806101400160405280600060089054906101000a900467ffffffffffffffff1667ffffffffffffffff1681526020018967ffffffffffffffff1681526020018863ffffffff1681526020018767ffffffffffffffff1681526020018681526020013373ffffffffffffffffffffffffffffffffffffffff1681526020016000151581526020018581526020018467ffffffffffffffff1681526020018367ffffffffffffffff16815250600460008060089054906101000a900467ffffffffffffffff1667ffffffffffffffff1667ffffffffffffffff16815260200190815260200160002060008201518160000160006101000a81548167ffffffffffffffff021916908367ffffffffffffffff16021790555060208201518160000160086101000a81548167ffffffffffffffff021916908367ffffffffffffffff16021790555060408201518160000160106101000a81548163ffffffff021916908363ffffffff16021790555060608201518160000160146101000a81548167ffffffffffffffff021916908367ffffffffffffffff1602179055506080820151816001019080519060200190612afa9291906147ac565b5060a08201518160020160006101000a81548173ffffffffffffffffffffffffffffffffffffffff021916908373ffffffffffffffffffffffffffffffffffffffff16021790555060c08201518160020160146101000a81548160ff02191690831515021790555060e0820151816003019080519060200190612b7e929190614918565b506101008201518160040160006101000a81548167ffffffffffffffff021916908367ffffffffffffffff1602179055506101208201518160040160086101000a81548167ffffffffffffffff021916908367ffffffffffffffff1602179055509050505050505050505050565b60016020528060005260406000206000915090508060000160009054906101000a900467ffffffffffffffff16908060000160089054906101000a900473ffffffffffffffffffffffffffffffffffffffff16908060010160009054906101000a900460801b908060010160109054906101000a900460801b905084565b60008360ff161415612d615760008260ff161415612cf15780600260003373ffffffffffffffffffffffffffffffffffffffff1673ffffffffffffffffffffffffffffffffffffffff16815260200190815260200160002060010160006101000a8154816fffffffffffffffffffffffffffffffff021916908360801c0217905550612d5c565b80600260003373ffffffffffffffffffffffffffffffffffffffff1673ffffffffffffffffffffffffffffffffffffffff16815260200190815260200160002060010160106101000a8154816fffffffffffffffffffffffffffffffff021916908360801c02179055505b612e55565b60018360ff161415612e545760008260ff161415612de85780600160003373ffffffffffffffffffffffffffffffffffffffff1673ffffffffffffffffffffffffffffffffffffffff16815260200190815260200160002060010160006101000a8154816fffffffffffffffffffffffffffffffff021916908360801c0217905550612e53565b80600160003373ffffffffffffffffffffffffffffffffffffffff1673ffffffffffffffffffffffffffffffffffffffff16815260200190815260200160002060010160106101000a8154816fffffffffffffffffffffffffffffffff021916908360801c02179055505b5b5b505050565b606060008060009054906101000a900467ffffffffffffffff1667ffffffffffffffff1667ffffffffffffffff811115612e9757612e96614b9d565b5b604051908082528060200260200182016040528015612ed057816020015b612ebd61499e565b815260200190600190039081612eb55790505b509050600080600090506000600190505b60008054906101000a900467ffffffffffffffff1667ffffffffffffffff168167ffffffffffffffff16116146285760018760ff161415613347578273ffffffffffffffffffffffffffffffffffffffff168673ffffffffffffffffffffffffffffffffffffffff161480612fcb5750600360008267ffffffffffffffff1667ffffffffffffffff16815260200190815260200160002060050160009054906101000a900473ffffffffffffffffffffffffffffffffffffffff1673ffffffffffffffffffffffffffffffffffffffff168673ffffffffffffffffffffffffffffffffffffffff16145b1561334257600360008267ffffffffffffffff1667ffffffffffffffff168152602001908152602001600020604051806101600160405290816000820160009054906101000a900467ffffffffffffffff1667ffffffffffffffff1667ffffffffffffffff168152602001600182015481526020016002820160009054906101000a900467ffffffffffffffff1667ffffffffffffffff1667ffffffffffffffff1681526020016002820160089054906101000a900467ffffffffffffffff1667ffffffffffffffff1667ffffffffffffffff1681526020016003820180548060200260200160405190810160405280929190818152602001828054801561312857602002820191906000526020600020906000905b82829054906101000a900460801b6fffffffffffffffffffffffffffffffff191681526020019060100190602082600f010492830192600103820291508084116130e15790505b50505050508152602001600482018054806020026020016040519081016040528092919081815260200182805480156131a657602002820191906000526020600020906000905b82829054906101000a900460ff1660ff168152602001906001019060208260000104928301926001038202915080841161316f5790505b505050505081526020016005820160009054906101000a900473ffffffffffffffffffffffffffffffffffffffff1673ffffffffffffffffffffffffffffffffffffffff1673ffffffffffffffffffffffffffffffffffffffff1681526020016005820160149054906101000a900460ff161515151581526020016005820160159054906101000a900460ff161515151581526020016005820160169054906101000a900467ffffffffffffffff1667ffffffffffffffff1667ffffffffffffffff16815260200160068201805461327d90615f24565b80601f01602080910402602001604051908101604052809291908181526020018280546132a990615f24565b80156132f65780601f106132cb576101008083540402835291602001916132f6565b820191906000526020600020905b8154815290600101906020018083116132d957829003601f168201915b5050505050815250508460018361330d9190615f56565b67ffffffffffffffff168151811061332857613327615f8a565b5b6020026020010181905250818061333e90615ec4565b9250505b614615565b60028760ff16141561380f5761335c81611a25565b801561339d5750600360008267ffffffffffffffff1667ffffffffffffffff16815260200190815260200160002060050160149054906101000a900460ff16155b80156133de5750600360008267ffffffffffffffff1667ffffffffffffffff16815260200190815260200160002060050160159054906101000a900460ff16155b1561380a578273ffffffffffffffffffffffffffffffffffffffff168673ffffffffffffffffffffffffffffffffffffffff1614806134925750600360008267ffffffffffffffff1667ffffffffffffffff16815260200190815260200160002060050160009054906101000a900473ffffffffffffffffffffffffffffffffffffffff1673ffffffffffffffffffffffffffffffffffffffff168673ffffffffffffffffffffffffffffffffffffffff16145b1561380957600360008267ffffffffffffffff1667ffffffffffffffff168152602001908152602001600020604051806101600160405290816000820160009054906101000a900467ffffffffffffffff1667ffffffffffffffff1667ffffffffffffffff168152602001600182015481526020016002820160009054906101000a900467ffffffffffffffff1667ffffffffffffffff1667ffffffffffffffff1681526020016002820160089054906101000a900467ffffffffffffffff1667ffffffffffffffff1667ffffffffffffffff168152602001600382018054806020026020016040519081016040528092919081815260200182805480156135ef57602002820191906000526020600020906000905b82829054906101000a900460801b6fffffffffffffffffffffffffffffffff191681526020019060100190602082600f010492830192600103820291508084116135a85790505b505050505081526020016004820180548060200260200160405190810160405280929190818152602001828054801561366d57602002820191906000526020600020906000905b82829054906101000a900460ff1660ff16815260200190600101906020826000010492830192600103820291508084116136365790505b505050505081526020016005820160009054906101000a900473ffffffffffffffffffffffffffffffffffffffff1673ffffffffffffffffffffffffffffffffffffffff1673ffffffffffffffffffffffffffffffffffffffff1681526020016005820160149054906101000a900460ff161515151581526020016005820160159054906101000a900460ff161515151581526020016005820160169054906101000a900467ffffffffffffffff1667ffffffffffffffff1667ffffffffffffffff16815260200160068201805461374490615f24565b80601f016020809104026020016040519081016040528092919081815260200182805461377090615f24565b80156137bd5780601f10613792576101008083540402835291602001916137bd565b820191906000526020600020905b8154815290600101906020018083116137a057829003601f168201915b505050505081525050846001836137d49190615f56565b67ffffffffffffffff16815181106137ef576137ee615f8a565b5b6020026020010181905250818061380590615ec4565b9250505b5b614614565b60038760ff161415613cd85761382481611a25565b1580156138665750600360008267ffffffffffffffff1667ffffffffffffffff16815260200190815260200160002060050160149054906101000a900460ff16155b80156138a75750600360008267ffffffffffffffff1667ffffffffffffffff16815260200190815260200160002060050160159054906101000a900460ff16155b15613cd3578273ffffffffffffffffffffffffffffffffffffffff168673ffffffffffffffffffffffffffffffffffffffff16148061395b5750600360008267ffffffffffffffff1667ffffffffffffffff16815260200190815260200160002060050160009054906101000a900473ffffffffffffffffffffffffffffffffffffffff1673ffffffffffffffffffffffffffffffffffffffff168673ffffffffffffffffffffffffffffffffffffffff16145b15613cd257600360008267ffffffffffffffff1667ffffffffffffffff168152602001908152602001600020604051806101600160405290816000820160009054906101000a900467ffffffffffffffff1667ffffffffffffffff1667ffffffffffffffff168152602001600182015481526020016002820160009054906101000a900467ffffffffffffffff1667ffffffffffffffff1667ffffffffffffffff1681526020016002820160089054906101000a900467ffffffffffffffff1667ffffffffffffffff1667ffffffffffffffff16815260200160038201805480602002602001604051908101604052809291908181526020018280548015613ab857602002820191906000526020600020906000905b82829054906101000a900460801b6fffffffffffffffffffffffffffffffff191681526020019060100190602082600f01049283019260010382029150808411613a715790505b5050505050815260200160048201805480602002602001604051908101604052809291908181526020018280548015613b3657602002820191906000526020600020906000905b82829054906101000a900460ff1660ff1681526020019060010190602082600001049283019260010382029150808411613aff5790505b505050505081526020016005820160009054906101000a900473ffffffffffffffffffffffffffffffffffffffff1673ffffffffffffffffffffffffffffffffffffffff1673ffffffffffffffffffffffffffffffffffffffff1681526020016005820160149054906101000a900460ff161515151581526020016005820160159054906101000a900460ff161515151581526020016005820160169054906101000a900467ffffffffffffffff1667ffffffffffffffff1667ffffffffffffffff168152602001600682018054613c0d90615f24565b80601f0160208091040260200160405190810160405280929190818152602001828054613c3990615f24565b8015613c865780601f10613c5b57610100808354040283529160200191613c86565b820191906000526020600020905b815481529060010190602001808311613c6957829003601f168201915b50505050508152505084600183613c9d9190615f56565b67ffffffffffffffff1681518110613cb857613cb7615f8a565b5b60200260200101819052508180613cce90615ec4565b9250505b5b614613565b60048760ff1614156141a057613ced81611a25565b158015613d2f5750600360008267ffffffffffffffff1667ffffffffffffffff16815260200190815260200160002060050160149054906101000a900460ff16155b8015613d6f5750600360008267ffffffffffffffff1667ffffffffffffffff16815260200190815260200160002060050160159054906101000a900460ff165b1561419b578273ffffffffffffffffffffffffffffffffffffffff168673ffffffffffffffffffffffffffffffffffffffff161480613e235750600360008267ffffffffffffffff1667ffffffffffffffff16815260200190815260200160002060050160009054906101000a900473ffffffffffffffffffffffffffffffffffffffff1673ffffffffffffffffffffffffffffffffffffffff168673ffffffffffffffffffffffffffffffffffffffff16145b1561419a57600360008267ffffffffffffffff1667ffffffffffffffff168152602001908152602001600020604051806101600160405290816000820160009054906101000a900467ffffffffffffffff1667ffffffffffffffff1667ffffffffffffffff168152602001600182015481526020016002820160009054906101000a900467ffffffffffffffff1667ffffffffffffffff1667ffffffffffffffff1681526020016002820160089054906101000a900467ffffffffffffffff1667ffffffffffffffff1667ffffffffffffffff16815260200160038201805480602002602001604051908101604052809291908181526020018280548015613f8057602002820191906000526020600020906000905b82829054906101000a900460801b6fffffffffffffffffffffffffffffffff191681526020019060100190602082600f01049283019260010382029150808411613f395790505b5050505050815260200160048201805480602002602001604051908101604052809291908181526020018280548015613ffe57602002820191906000526020600020906000905b82829054906101000a900460ff1660ff1681526020019060010190602082600001049283019260010382029150808411613fc75790505b505050505081526020016005820160009054906101000a900473ffffffffffffffffffffffffffffffffffffffff1673ffffffffffffffffffffffffffffffffffffffff1673ffffffffffffffffffffffffffffffffffffffff1681526020016005820160149054906101000a900460ff161515151581526020016005820160159054906101000a900460ff161515151581526020016005820160169054906101000a900467ffffffffffffffff1667ffffffffffffffff1667ffffffffffffffff1681526020016006820180546140d590615f24565b80601f016020809104026020016040519081016040528092919081815260200182805461410190615f24565b801561414e5780601f106141235761010080835404028352916020019161414e565b820191906000526020600020905b81548152906001019060200180831161413157829003601f168201915b505050505081525050846001836141659190615f56565b67ffffffffffffffff16815181106141805761417f615f8a565b5b6020026020010181905250818061419690615ec4565b9250505b5b614612565b60058760ff16141561461157600360008267ffffffffffffffff1667ffffffffffffffff16815260200190815260200160002060050160149054906101000a900460ff1615614610578273ffffffffffffffffffffffffffffffffffffffff168673ffffffffffffffffffffffffffffffffffffffff1614806142985750600360008267ffffffffffffffff1667ffffffffffffffff16815260200190815260200160002060050160009054906101000a900473ffffffffffffffffffffffffffffffffffffffff1673ffffffffffffffffffffffffffffffffffffffff168673ffffffffffffffffffffffffffffffffffffffff16145b1561460f57600360008267ffffffffffffffff1667ffffffffffffffff168152602001908152602001600020604051806101600160405290816000820160009054906101000a900467ffffffffffffffff1667ffffffffffffffff1667ffffffffffffffff168152602001600182015481526020016002820160009054906101000a900467ffffffffffffffff1667ffffffffffffffff1667ffffffffffffffff1681526020016002820160089054906101000a900467ffffffffffffffff1667ffffffffffffffff1667ffffffffffffffff168152602001600382018054806020026020016040519081016040528092919081815260200182805480156143f557602002820191906000526020600020906000905b82829054906101000a900460801b6fffffffffffffffffffffffffffffffff191681526020019060100190602082600f010492830192600103820291508084116143ae5790505b505050505081526020016004820180548060200260200160405190810160405280929190818152602001828054801561447357602002820191906000526020600020906000905b82829054906101000a900460ff1660ff168152602001906001019060208260000104928301926001038202915080841161443c5790505b505050505081526020016005820160009054906101000a900473ffffffffffffffffffffffffffffffffffffffff1673ffffffffffffffffffffffffffffffffffffffff1673ffffffffffffffffffffffffffffffffffffffff1681526020016005820160149054906101000a900460ff161515151581526020016005820160159054906101000a900460ff161515151581526020016005820160169054906101000a900467ffffffffffffffff1667ffffffffffffffff1667ffffffffffffffff16815260200160068201805461454a90615f24565b80601f016020809104026020016040519081016040528092919081815260200182805461457690615f24565b80156145c35780601f10614598576101008083540402835291602001916145c3565b820191906000526020600020905b8154815290600101906020018083116145a657829003601f168201915b505050505081525050846001836145da9190615f56565b67ffffffffffffffff16815181106145f5576145f4615f8a565b5b6020026020010181905250818061460b90615ec4565b9250505b5b5b5b5b5b5b808061462090615ec4565b915050612ee1565b5082935050505092915050565b60046020528060005260406000206000915090508060000160009054906101000a900467ffffffffffffffff16908060000160089054906101000a900467ffffffffffffffff16908060000160109054906101000a900463ffffffff16908060000160149054906101000a900467ffffffffffffffff16908060020160009054906101000a900473ffffffffffffffffffffffffffffffffffffffff16908060020160149054906101000a900460ff16908060030180546146f590615f24565b80601f016020809104026020016040519081016040528092919081815260200182805461472190615f24565b801561476e5780601f106147435761010080835404028352916020019161476e565b820191906000526020600020905b81548152906001019060200180831161475157829003601f168201915b5050505050908060040160009054906101000a900467ffffffffffffffff16908060040160089054906101000a900467ffffffffffffffff16905089565b828054828255906000526020600020906001016002900481019282156148605791602002820160005b8382111561482257835183826101000a8154816fffffffffffffffffffffffffffffffff021916908360801c02179055509260200192601001602081600f010492830192600103026147d5565b801561485e5782816101000a8154906fffffffffffffffffffffffffffffffff0219169055601001602081600f01049283019260010302614822565b505b50905061486d9190614ae0565b5090565b82805482825590600052602060002090601f016020900481019282156149075791602002820160005b838211156148d857835183826101000a81548160ff021916908360ff160217905550926020019260010160208160000104928301926001030261489a565b80156149055782816101000a81549060ff02191690556001016020816000010492830192600103026148d8565b505b5090506149149190614ae0565b5090565b82805461492490615f24565b90600052602060002090601f016020900481019282614946576000855561498d565b82601f1061495f57805160ff191683800117855561498d565b8280016001018555821561498d579182015b8281111561498c578251825591602001919060010190614971565b5b50905061499a9190614ae0565b5090565b604051806101600160405280600067ffffffffffffffff16815260200160008019168152602001600067ffffffffffffffff168152602001600067ffffffffffffffff1681526020016060815260200160608152602001600073ffffffffffffffffffffffffffffffffffffffff168152602001600015158152602001600015158152602001600067ffffffffffffffff168152602001606081525090565b604051806101400160405280600067ffffffffffffffff168152602001600067ffffffffffffffff168152602001600063ffffffff168152602001600067ffffffffffffffff16815260200160608152602001600073ffffffffffffffffffffffffffffffffffffffff16815260200160001515815260200160608152602001600067ffffffffffffffff168152602001600067ffffffffffffffff1681525090565b5b80821115614af9576000816000905550600101614ae1565b5090565b6000604051905090565b600080fd5b600080fd5b6000819050919050565b614b2481614b11565b8114614b2f57600080fd5b50565b600081359050614b4181614b1b565b92915050565b600067ffffffffffffffff82169050919050565b614b6481614b47565b8114614b6f57600080fd5b50565b600081359050614b8181614b5b565b92915050565b600080fd5b6000601f19601f8301169050919050565b7f4e487b7100000000000000000000000000000000000000000000000000000000600052604160045260246000fd5b614bd582614b8c565b810181811067ffffffffffffffff82111715614bf457614bf3614b9d565b5b80604052505050565b6000614c07614afd565b9050614c138282614bcc565b919050565b600067ffffffffffffffff821115614c3357614c32614b9d565b5b602082029050602081019050919050565b600080fd5b60007fffffffffffffffffffffffffffffffff0000000000000000000000000000000082169050919050565b614c7e81614c49565b8114614c8957600080fd5b50565b600081359050614c9b81614c75565b92915050565b6000614cb4614caf84614c18565b614bfd565b90508083825260208201905060208402830185811115614cd757614cd6614c44565b5b835b81811015614d005780614cec8882614c8c565b845260208401935050602081019050614cd9565b5050509392505050565b600082601f830112614d1f57614d1e614b87565b5b8135614d2f848260208601614ca1565b91505092915050565b600067ffffffffffffffff821115614d5357614d52614b9d565b5b602082029050602081019050919050565b600060ff82169050919050565b614d7a81614d64565b8114614d8557600080fd5b50565b600081359050614d9781614d71565b92915050565b6000614db0614dab84614d38565b614bfd565b90508083825260208201905060208402830185811115614dd357614dd2614c44565b5b835b81811015614dfc5780614de88882614d88565b845260208401935050602081019050614dd5565b5050509392505050565b600082601f830112614e1b57614e1a614b87565b5b8135614e2b848260208601614d9d565b91505092915050565b600080fd5b600067ffffffffffffffff821115614e5457614e53614b9d565b5b614e5d82614b8c565b9050602081019050919050565b82818337600083830152505050565b6000614e8c614e8784614e39565b614bfd565b905082815260208101848484011115614ea857614ea7614e34565b5b614eb3848285614e6a565b509392505050565b600082601f830112614ed057614ecf614b87565b5b8135614ee0848260208601614e79565b91505092915050565b60008060008060008060c08789031215614f0657614f05614b07565b5b6000614f1489828a01614b32565b9650506020614f2589828a01614b72565b9550506040614f3689828a01614b72565b945050606087013567ffffffffffffffff811115614f5757614f56614b0c565b5b614f6389828a01614d0a565b935050608087013567ffffffffffffffff811115614f8457614f83614b0c565b5b614f9089828a01614e06565b92505060a087013567ffffffffffffffff811115614fb157614fb0614b0c565b5b614fbd89828a01614ebb565b9150509295509295509295565b600060208284031215614fe057614fdf614b07565b5b6000614fee84828501614b72565b91505092915050565b61500081614b47565b82525050565b600060208201905061501b6000830184614ff7565b92915050565b600073ffffffffffffffffffffffffffffffffffffffff82169050919050565b600061504c82615021565b9050919050565b61505c81615041565b811461506757600080fd5b50565b60008135905061507981615053565b92915050565b60006020828403121561509557615094614b07565b5b60006150a38482850161506a565b91505092915050565b6150b581615041565b82525050565b6150c481614c49565b82525050565b60006080820190506150df6000830187614ff7565b6150ec60208301866150ac565b6150f960408301856150bb565b61510660608301846150bb565b95945050505050565b61511881614b47565b82525050565b61512781614b11565b82525050565b600081519050919050565b600082825260208201905092915050565b6000819050602082019050919050565b61516281614c49565b82525050565b60006151748383615159565b60208301905092915050565b6000602082019050919050565b60006151988261512d565b6151a28185615138565b93506151ad83615149565b8060005b838110156151de5781516151c58882615168565b97506151d083615180565b9250506001810190506151b1565b5085935050505092915050565b600081519050919050565b600082825260208201905092915050565b6000819050602082019050919050565b61522081614d64565b82525050565b60006152328383615217565b60208301905092915050565b6000602082019050919050565b6000615256826151eb565b61526081856151f6565b935061526b83615207565b8060005b8381101561529c5781516152838882615226565b975061528e8361523e565b92505060018101905061526f565b5085935050505092915050565b6152b281615041565b82525050565b60008115159050919050565b6152cd816152b8565b82525050565b600081519050919050565b600082825260208201905092915050565b60005b8381101561530d5780820151818401526020810190506152f2565b8381111561531c576000848401525b50505050565b600061532d826152d3565b61533781856152de565b93506153478185602086016152ef565b61535081614b8c565b840191505092915050565b600061016083016000830151615374600086018261510f565b506020830151615387602086018261511e565b50604083015161539a604086018261510f565b5060608301516153ad606086018261510f565b50608083015184820360808601526153c5828261518d565b91505060a083015184820360a08601526153df828261524b565b91505060c08301516153f460c08601826152a9565b5060e083015161540760e08601826152c4565b5061010083015161541c6101008601826152c4565b5061012083015161543161012086018261510f565b5061014083015184820361014086015261544b8282615322565b9150508091505092915050565b60006020820190508181036000830152615472818461535b565b905092915050565b6000806040838503121561549157615490614b07565b5b600061549f8582860161506a565b92505060206154b085828601614b72565b9150509250929050565b600081519050919050565b600082825260208201905092915050565b6000819050602082019050919050565b600063ffffffff82169050919050565b6154ff816154e6565b82525050565b60006101408301600083015161551e600086018261510f565b506020830151615531602086018261510f565b50604083015161554460408601826154f6565b506060830151615557606086018261510f565b506080830151848203608086015261556f828261518d565b91505060a083015161558460a08601826152a9565b5060c083015161559760c08601826152c4565b5060e083015184820360e08601526155af8282615322565b9150506101008301516155c661010086018261510f565b506101208301516155db61012086018261510f565b508091505092915050565b60006155f28383615505565b905092915050565b6000602082019050919050565b6000615612826154ba565b61561c81856154c5565b93508360208202850161562e856154d6565b8060005b8581101561566a578484038952815161564b85826155e6565b9450615656836155fa565b925060208a01995050600181019050615632565b50829750879550505050505092915050565b600060208201905081810360008301526156968184615607565b905092915050565b6000806000606084860312156156b7576156b6614b07565b5b60006156c586828701614b72565b93505060206156d686828701614b72565b92505060406156e786828701614d88565b9150509250925092565b6156fa816152b8565b82525050565b600060208201905061571560008301846156f1565b92915050565b600061014083016000830151615734600086018261510f565b506020830151615747602086018261510f565b50604083015161575a60408601826154f6565b50606083015161576d606086018261510f565b5060808301518482036080860152615785828261518d565b91505060a083015161579a60a08601826152a9565b5060c08301516157ad60c08601826152c4565b5060e083015184820360e08601526157c58282615322565b9150506101008301516157dc61010086018261510f565b506101208301516157f161012086018261510f565b508091505092915050565b60006020820190508181036000830152615816818461571b565b905092915050565b61582781614b11565b82525050565b600082825260208201905092915050565b6000615849826152d3565b615853818561582d565b93506158638185602086016152ef565b61586c81614b8c565b840191505092915050565b60006101208201905061588d600083018c614ff7565b61589a602083018b61581e565b6158a7604083018a614ff7565b6158b46060830189614ff7565b6158c160808301886150ac565b6158ce60a08301876156f1565b6158db60c08301866156f1565b6158e860e0830185614ff7565b8181036101008301526158fb818461583e565b90509a9950505050505050505050565b60008160000b9050919050565b6159218161590b565b82525050565b600060208201905061593c6000830184615918565b92915050565b6000806040838503121561595957615958614b07565b5b60006159678582860161506a565b925050602061597885828601614d88565b9150509250929050565b60006060820190506159976000830186614ff7565b6159a460208301856150bb565b6159b160408301846150bb565b949350505050565b6000806000606084860312156159d2576159d1614b07565b5b60006159e086828701614c8c565b93505060206159f186828701614c8c565b9250506040615a0286828701614d88565b9150509250925092565b615a15816154e6565b8114615a2057600080fd5b50565b600081359050615a3281615a0c565b92915050565b600080600080600080600060e0888a031215615a5757615a56614b07565b5b6000615a658a828b01614b72565b9750506020615a768a828b01615a23565b9650506040615a878a828b01614b72565b955050606088013567ffffffffffffffff811115615aa857615aa7614b0c565b5b615ab48a828b01614d0a565b945050608088013567ffffffffffffffff811115615ad557615ad4614b0c565b5b615ae18a828b01614ebb565b93505060a0615af28a828b01614b72565b92505060c0615b038a828b01614b72565b91505092959891949750929550565b600080600060608486031215615b2b57615b2a614b07565b5b6000615b3986828701614d88565b9350506020615b4a86828701614d88565b9250506040615b5b86828701614c8c565b9150509250925092565b60008060408385031215615b7c57615b7b614b07565b5b6000615b8a85828601614d88565b9250506020615b9b8582860161506a565b9150509250929050565b600081519050919050565b600082825260208201905092915050565b6000819050602082019050919050565b600061016083016000830151615bea600086018261510f565b506020830151615bfd602086018261511e565b506040830151615c10604086018261510f565b506060830151615c23606086018261510f565b5060808301518482036080860152615c3b828261518d565b91505060a083015184820360a0860152615c55828261524b565b91505060c0830151615c6a60c08601826152a9565b5060e0830151615c7d60e08601826152c4565b50610100830151615c926101008601826152c4565b50610120830151615ca761012086018261510f565b50610140830151848203610140860152615cc18282615322565b9150508091505092915050565b6000615cda8383615bd1565b905092915050565b6000602082019050919050565b6000615cfa82615ba5565b615d048185615bb0565b935083602082028501615d1685615bc1565b8060005b85811015615d525784840389528151615d338582615cce565b9450615d3e83615ce2565b925060208a01995050600181019050615d1a565b50829750879550505050505092915050565b60006020820190508181036000830152615d7e8184615cef565b905092915050565b615d8f816154e6565b82525050565b600061012082019050615dab600083018c614ff7565b615db8602083018b614ff7565b615dc5604083018a615d86565b615dd26060830189614ff7565b615ddf60808301886150ac565b615dec60a08301876156f1565b81810360c0830152615dfe818661583e565b9050615e0d60e0830185614ff7565b615e1b610100830184614ff7565b9a9950505050505050505050565b7f6572726f72000000000000000000000000000000000000000000000000000000600082015250565b6000615e5f60058361582d565b9150615e6a82615e29565b602082019050919050565b60006020820190508181036000830152615e8e81615e52565b9050919050565b7f4e487b7100000000000000000000000000000000000000000000000000000000600052601160045260246000fd5b6000615ecf82614b47565b915067ffffffffffffffff821415615eea57615ee9615e95565b5b600182019050919050565b7f4e487b7100000000000000000000000000000000000000000000000000000000600052602260045260246000fd5b60006002820490506001821680615f3c57607f821691505b60208210811415615f5057615f4f615ef5565b5b50919050565b6000615f6182614b47565b9150615f6c83614b47565b925082821015615f7f57615f7e615e95565b5b828203905092915050565b7f4e487b7100000000000000000000000000000000000000000000000000000000600052603260045260246000fdfea2646970667358221220ae4a3547053ec3b2f6915d15fda9f4b61806d663cadaf21d1bf4ca087b41d88964736f6c634300080c0033",
  "immutableReferences": {},
  "source": "// SPDX-License-Identifier: GPL-3.0\r\npragma solidity ^0.8.0;\r\n\r\ncontract BindingContract {\r\n    struct Company {\r\n        uint64 companyId;\r\n        address companyAddress;\r\n        bytes16 name;\r\n        bytes16 phoneNo;\r\n    }\r\n\r\n    struct Municipality {\r\n        uint64 municipalityId;\r\n        address municipalityAddress;\r\n        bytes16 name;\r\n        bytes16 phoneNo;\r\n    }\r\n\r\n    struct BindingData {\r\n        uint64 bindingId;\r\n        bytes32 name;\r\n        uint64 startDate;\r\n        uint64 endDate;\r\n        bytes16[] details;\r\n        uint8[] points;\r\n        address municipalityAddress;\r\n        bool isCanceled;\r\n        bool isOpened;\r\n        uint64 _winnerId;\r\n        string tenderText;\r\n    }\r\n\r\n    struct RequestBinding {\r\n        uint64 requestId;\r\n        uint64 companyId;\r\n        uint32 price;\r\n        uint64 bindingId;\r\n        bytes16[] details;\r\n        address companyAddress;\r\n        bool isWinner;\r\n        string text;\r\n        uint64 startDate;\r\n        uint64 endDate;\r\n    }\r\n\r\n    //-------------------------------------------------------\r\n    uint64 bindingContractCount;\r\n    uint64 bindingRequestsCount;\r\n    uint64 companyCount;\r\n    uint64 municipalityCount;\r\n\r\n    constructor() {\r\n        bindingContractCount = 0;\r\n        bindingRequestsCount = 0;\r\n        companyCount = 0;\r\n        municipalityCount = 0;\r\n    }\r\n\r\n    mapping(address => Company) public company;\r\n    mapping(address => Municipality) public municipality;\r\n    mapping(uint64 => BindingData) public bindingContracts;\r\n    mapping(uint64 => RequestBinding) public bindingRequests;\r\n\r\n    function signUp(\r\n        bytes16 _name,\r\n        bytes16 _phoneNo,\r\n        uint8 _type\r\n    ) public payable {\r\n        if (getUserType() == -1) {\r\n            if (_type == 0) {\r\n                municipalityCount++;\r\n                municipality[msg.sender] = Municipality(\r\n                    municipalityCount,\r\n                    msg.sender,\r\n                    _name,\r\n                    _phoneNo\r\n                );\r\n            } else {\r\n                companyCount++;\r\n                company[msg.sender] = Company(\r\n                    companyCount,\r\n                    msg.sender,\r\n                    _name,\r\n                    _phoneNo\r\n                );\r\n            }\r\n        }\r\n    }\r\n\r\n    function createBindingContract(\r\n        bytes32 _name,\r\n        uint64 _startDate,\r\n        uint64 _endDate,\r\n        bytes16[] memory _details,\r\n        uint8[] memory _points,\r\n        string memory _tenderText\r\n    ) public payable {\r\n        require(\r\n            _details.length == _points.length && getUserType() == 0,\r\n            \"error\"\r\n        );\r\n        bindingContractCount++;\r\n        bindingContracts[bindingContractCount] = BindingData(\r\n            bindingContractCount,\r\n            _name,\r\n            _startDate,\r\n            _endDate,\r\n            _details,\r\n            _points,\r\n            msg.sender,\r\n            false,\r\n            false,\r\n            0,\r\n            _tenderText\r\n        );\r\n    }\r\n\r\n    function getBindingById(uint64 bindingId)\r\n        public\r\n        view\r\n        returns (BindingData memory)\r\n    {\r\n            return bindingContracts[bindingId];\r\n    }\r\n\r\n    function getBindings(uint8 _bidType, address _address)\r\n        external\r\n        view\r\n        returns (BindingData[] memory)\r\n    {\r\n        BindingData[] memory _bindings = new BindingData[](\r\n            bindingContractCount\r\n        );\r\n        address _deadAddress;\r\n        uint64 counter = 0;\r\n        for (uint64 i = 1; i <= bindingContractCount; i++) {\r\n            if (_bidType == 1) {\r\n                // get all binding\r\n                if (\r\n                    _address == _deadAddress ||\r\n                    _address == bindingContracts[i].municipalityAddress\r\n                ) {\r\n                    _bindings[i - 1] = bindingContracts[i];\r\n                    counter++;\r\n                }\r\n            } else if (_bidType == 2) {\r\n                // get active binding\r\n                if (\r\n                    isActive(i) &&\r\n                    !bindingContracts[i].isCanceled &&\r\n                    !bindingContracts[i].isOpened\r\n                )\r\n                    if (\r\n                        _address == _deadAddress ||\r\n                        _address == bindingContracts[i].municipalityAddress\r\n                    ) {\r\n                        _bindings[i - 1] = bindingContracts[i];\r\n                        counter++;\r\n                    }\r\n            } else if (_bidType == 3) {\r\n                // get ended binding\r\n                if (\r\n                    !isActive(i) &&\r\n                    !bindingContracts[i].isCanceled &&\r\n                    !bindingContracts[i].isOpened\r\n                )\r\n                    if (\r\n                        _address == _deadAddress ||\r\n                        _address == bindingContracts[i].municipalityAddress\r\n                    ) {\r\n                        _bindings[i - 1] = bindingContracts[i];\r\n                        counter++;\r\n                    }\r\n            } else if (_bidType == 4) {\r\n                // get opened binding\r\n                if (\r\n                    !isActive(i) &&\r\n                    !bindingContracts[i].isCanceled &&\r\n                    bindingContracts[i].isOpened\r\n                )\r\n                    if (\r\n                        _address == _deadAddress ||\r\n                        _address == bindingContracts[i].municipalityAddress\r\n                    ) {\r\n                        _bindings[i - 1] = bindingContracts[i];\r\n                        counter++;\r\n                    }\r\n            } else if (_bidType == 5) {\r\n                // get all binding\r\n                if (bindingContracts[i].isCanceled)\r\n                    if (\r\n                        _address == _deadAddress ||\r\n                        _address == bindingContracts[i].municipalityAddress\r\n                    ) {\r\n                        _bindings[i - 1] = bindingContracts[i];\r\n                        counter++;\r\n                    }\r\n            }\r\n        }\r\n        // BindingData[] memory _bindings1 = new BindingData[](counter);\r\n        // _bindings1 = _bindings;\r\n        // delete _bindings;\r\n        return _bindings;\r\n    }\r\n\r\n    function openCanceleTender(\r\n        uint64 _bindingId,\r\n        uint64 _requestId,\r\n        uint8 _type\r\n    ) public payable {\r\n        require(\r\n            _bindingId <= bindingContractCount &&\r\n                msg.sender ==\r\n                bindingContracts[_bindingId].municipalityAddress &&\r\n                !bindingContracts[_bindingId].isOpened &&\r\n                !bindingContracts[_bindingId].isCanceled,\r\n            \"error\"\r\n        );\r\n        if (_type == 0) {\r\n            // open tender\r\n            require(\r\n                msg.sender ==\r\n                    bindingContracts[bindingRequests[_requestId].bindingId]\r\n                        .municipalityAddress &&\r\n                    !bindingContracts[bindingRequests[_requestId].bindingId]\r\n                        .isOpened &&\r\n                    !bindingContracts[bindingRequests[_requestId].bindingId]\r\n                        .isCanceled &&\r\n                    _requestId <= bindingRequestsCount &&\r\n                    bindingRequests[_requestId].bindingId == _bindingId &&\r\n                    !isActive(_bindingId),\r\n                \"error\"\r\n            );\r\n            {\r\n                bindingContracts[_bindingId].isOpened = true;\r\n                bindingContracts[_bindingId]._winnerId = _requestId;\r\n                bindingRequests[_requestId].isWinner = true;\r\n            }\r\n        } else if (_type == 1) {\r\n            //close tender\r\n            bindingContracts[_bindingId].isCanceled = true;\r\n        }\r\n    }\r\n\r\n    function isActive(uint64 bindingId) public view returns (bool) {\r\n        if (bindingId <= bindingContractCount) {\r\n            if (\r\n                bindingContracts[bindingId].endDate >= block.timestamp &&\r\n                bindingContracts[bindingId].startDate <= block.timestamp\r\n            ) {\r\n                return true;\r\n            }\r\n        }\r\n        return false;\r\n    }\r\n\r\n    function getProfile(address _address, uint8 _type)\r\n        public\r\n        view\r\n        returns (\r\n            uint64 companyId,\r\n            bytes16 name,\r\n            bytes16 phoneNo\r\n        )\r\n    {\r\n        if (_type == 0) {\r\n            return (\r\n                municipality[_address].municipalityId,\r\n                municipality[_address].name,\r\n                municipality[_address].phoneNo\r\n            );\r\n        } else {\r\n            return (\r\n                company[_address].companyId,\r\n                company[_address].name,\r\n                company[_address].phoneNo\r\n            );\r\n        }\r\n    }\r\n\r\n    function requestToBinding(\r\n        uint64 _companyId,\r\n        uint32 _price,\r\n        uint64 _bindingId,\r\n        bytes16[] memory _details,\r\n        string memory _text,\r\n        uint64 _startDate,\r\n        uint64 _endDate\r\n    ) public payable {\r\n        bool reqested = false;\r\n        for (uint64 i = 1; i <= bindingRequestsCount; i++) {\r\n            if (\r\n                bindingRequests[i].bindingId == _bindingId &&\r\n                bindingRequests[i].companyId == _companyId\r\n            ) {\r\n                reqested = true;\r\n                break;\r\n            }\r\n        }\r\n        require(\r\n            !reqested &&\r\n                !bindingContracts[_bindingId].isOpened &&\r\n                !bindingContracts[_bindingId].isCanceled &&\r\n                isActive(_bindingId) &&\r\n                _details.length <= getBindingById(_bindingId).details.length &&\r\n                getUserType() == 1,\r\n            \"error\"\r\n        );\r\n        bindingRequestsCount++;\r\n        bindingRequests[bindingRequestsCount] = RequestBinding(\r\n            bindingRequestsCount,\r\n            _companyId,\r\n            _price,\r\n            _bindingId,\r\n            _details,\r\n            msg.sender,\r\n            false,\r\n            _text,\r\n            _startDate,\r\n            _endDate\r\n        );\r\n    }\r\n\r\n    function getBindingRequestByRequestId(uint64 _requestId)\r\n        public\r\n        view\r\n        returns (RequestBinding memory)\r\n    {\r\n        if (!isActive(bindingRequests[_requestId].bindingId))\r\n            return bindingRequests[_requestId];\r\n    }\r\n\r\n    function getUserType() public view returns (int8) {\r\n        if (municipality[msg.sender].municipalityId != 0) {\r\n            return 0;\r\n        }\r\n        if (company[msg.sender].companyId != 0) {\r\n            return 1;\r\n        }\r\n        return -1;\r\n    }\r\n\r\n    function getCountOf(uint64 _type) public view returns (uint64) {\r\n        if (_type == 0) {\r\n            return municipalityCount;\r\n        } else if (_type == 1) {\r\n            return companyCount;\r\n        } else if (_type == 2) {\r\n            return bindingContractCount;\r\n        } else if (_type == 3) {\r\n            return bindingRequestsCount;\r\n        }\r\n        return 0;\r\n    }\r\n\r\n    function getContractsRequest(address _companyAddress, uint64 _bindingId)\r\n        public\r\n        view\r\n        returns (RequestBinding[] memory)\r\n    {\r\n        if (!isActive(_bindingId)) {\r\n            RequestBinding[] memory _contractRequests = new RequestBinding[](\r\n                bindingRequestsCount\r\n            );\r\n            uint64 counter = 0;\r\n            address _deadAddress;\r\n            for (uint64 i = 1; i <= bindingRequestsCount; i++) {\r\n                if (\r\n                    _companyAddress != _deadAddress &&\r\n                    _bindingId == 0 &&\r\n                    bindingRequests[i].companyAddress == _companyAddress\r\n                ) {\r\n                    _contractRequests[i - 1] = bindingRequests[i];\r\n                    counter++;\r\n                } else if (\r\n                    _companyAddress == _deadAddress &&\r\n                    _bindingId != 0 &&\r\n                    bindingRequests[i].bindingId == _bindingId\r\n                ) {\r\n                    _contractRequests[i - 1] = bindingRequests[i];\r\n                    counter++;\r\n                }\r\n            }\r\n            // RequestBinding[] memory _contractRequests1 = new RequestBinding[](\r\n            //     counter\r\n            // );\r\n            // _contractRequests1 = _contractRequests;\r\n            // delete _contractRequests;\r\n            return _contractRequests;\r\n        }\r\n    }\r\n\r\n    function editInfo(\r\n        uint8 _userType,\r\n        uint8 _editType,\r\n        bytes16 _value\r\n    ) public payable {\r\n\r\n        if (_userType == 0) {\r\n            if (_editType == 0) municipality[msg.sender].name = _value;\r\n            else municipality[msg.sender].phoneNo = _value;\r\n        } else if (_userType == 1) {\r\n            if (_editType == 0) company[msg.sender].name = _value;\r\n            else company[msg.sender].phoneNo = _value;\r\n        }\r\n    }\r\n}\r\n",
  "sourcePath": "C:\\Users\\Hassan\\Desktop\\blockchainProject\\Blockchain-Based-Tendering-System-\\public\\solidtiy\\contracts\\BindingContract.sol",
  "compiler": {
    "name": "solc",
    "version": "0.8.12+commit.f00d7308.Emscripten.clang"
  },
  "schemaVersion": "3.4.9",
  "updatedAt": "2022-08-13T22:37:25.124Z",
  "networkType": "ethereum",
  "devdoc": {
    "kind": "dev",
    "methods": {},
    "version": 1
  },
  "userdoc": {
    "kind": "user",
    "methods": {},
    "version": 1
  }
}