{
  "contractName": "BindingContract",
  "abi": [
    {
      "inputs": [],
      "stateMutability": "nonpayable",
      "type": "constructor"
    },
    {
      "inputs": [
        {
          "internalType": "uint64",
          "name": "",
          "type": "uint64"
        }
      ],
      "name": "bindingContracts",
      "outputs": [
        {
          "internalType": "uint64",
          "name": "bindingId",
          "type": "uint64"
        },
        {
          "internalType": "bytes32",
          "name": "name",
          "type": "bytes32"
        },
        {
          "internalType": "uint64",
          "name": "startDate",
          "type": "uint64"
        },
        {
          "internalType": "uint64",
          "name": "endDate",
          "type": "uint64"
        },
        {
          "internalType": "address",
          "name": "municipalityAddress",
          "type": "address"
        },
        {
          "internalType": "bool",
          "name": "isCanceled",
          "type": "bool"
        },
        {
          "internalType": "bool",
          "name": "isOpened",
          "type": "bool"
        },
        {
          "internalType": "uint64",
          "name": "_winnerId",
          "type": "uint64"
        },
        {
          "internalType": "string",
          "name": "tenderText",
          "type": "string"
        }
      ],
      "stateMutability": "view",
      "type": "function",
      "constant": true
    },
    {
      "inputs": [
        {
          "internalType": "uint64",
          "name": "",
          "type": "uint64"
        }
      ],
      "name": "bindingRequests",
      "outputs": [
        {
          "internalType": "uint64",
          "name": "requestId",
          "type": "uint64"
        },
        {
          "internalType": "uint64",
          "name": "companyId",
          "type": "uint64"
        },
        {
          "internalType": "uint32",
          "name": "price",
          "type": "uint32"
        },
        {
          "internalType": "uint64",
          "name": "bindingId",
          "type": "uint64"
        },
        {
          "internalType": "address",
          "name": "companyAddress",
          "type": "address"
        },
        {
          "internalType": "bool",
          "name": "isWinner",
          "type": "bool"
        },
        {
          "internalType": "string",
          "name": "text",
          "type": "string"
        },
        {
          "internalType": "uint64",
          "name": "startDate",
          "type": "uint64"
        },
        {
          "internalType": "uint64",
          "name": "endDate",
          "type": "uint64"
        }
      ],
      "stateMutability": "view",
      "type": "function",
      "constant": true
    },
    {
      "inputs": [
        {
          "internalType": "address",
          "name": "",
          "type": "address"
        }
      ],
      "name": "company",
      "outputs": [
        {
          "internalType": "uint64",
          "name": "companyId",
          "type": "uint64"
        },
        {
          "internalType": "address",
          "name": "companyAddress",
          "type": "address"
        },
        {
          "internalType": "bytes16",
          "name": "name",
          "type": "bytes16"
        },
        {
          "internalType": "bytes16",
          "name": "phoneNo",
          "type": "bytes16"
        }
      ],
      "stateMutability": "view",
      "type": "function",
      "constant": true
    },
    {
      "inputs": [
        {
          "internalType": "address",
          "name": "",
          "type": "address"
        }
      ],
      "name": "municipality",
      "outputs": [
        {
          "internalType": "uint64",
          "name": "municipalityId",
          "type": "uint64"
        },
        {
          "internalType": "address",
          "name": "municipalityAddress",
          "type": "address"
        },
        {
          "internalType": "bytes16",
          "name": "name",
          "type": "bytes16"
        },
        {
          "internalType": "bytes16",
          "name": "phoneNo",
          "type": "bytes16"
        }
      ],
      "stateMutability": "view",
      "type": "function",
      "constant": true
    },
    {
      "inputs": [
        {
          "internalType": "bytes16",
          "name": "_name",
          "type": "bytes16"
        },
        {
          "internalType": "bytes16",
          "name": "_phoneNo",
          "type": "bytes16"
        },
        {
          "internalType": "uint8",
          "name": "_type",
          "type": "uint8"
        }
      ],
      "name": "signUp",
      "outputs": [],
      "stateMutability": "payable",
      "type": "function",
      "payable": true
    },
    {
      "inputs": [
        {
          "internalType": "bytes32",
          "name": "_name",
          "type": "bytes32"
        },
        {
          "internalType": "uint64",
          "name": "_startDate",
          "type": "uint64"
        },
        {
          "internalType": "uint64",
          "name": "_endDate",
          "type": "uint64"
        },
        {
          "internalType": "bytes16[]",
          "name": "_details",
          "type": "bytes16[]"
        },
        {
          "internalType": "uint8[]",
          "name": "_points",
          "type": "uint8[]"
        },
        {
          "internalType": "string",
          "name": "_tenderText",
          "type": "string"
        }
      ],
      "name": "createBindingContract",
      "outputs": [],
      "stateMutability": "payable",
      "type": "function",
      "payable": true
    },
    {
      "inputs": [
        {
          "internalType": "uint64",
          "name": "bindingId",
          "type": "uint64"
        }
      ],
      "name": "getBindingById",
      "outputs": [
        {
          "components": [
            {
              "internalType": "uint64",
              "name": "bindingId",
              "type": "uint64"
            },
            {
              "internalType": "bytes32",
              "name": "name",
              "type": "bytes32"
            },
            {
              "internalType": "uint64",
              "name": "startDate",
              "type": "uint64"
            },
            {
              "internalType": "uint64",
              "name": "endDate",
              "type": "uint64"
            },
            {
              "internalType": "bytes16[]",
              "name": "details",
              "type": "bytes16[]"
            },
            {
              "internalType": "uint8[]",
              "name": "points",
              "type": "uint8[]"
            },
            {
              "internalType": "address",
              "name": "municipalityAddress",
              "type": "address"
            },
            {
              "internalType": "bool",
              "name": "isCanceled",
              "type": "bool"
            },
            {
              "internalType": "bool",
              "name": "isOpened",
              "type": "bool"
            },
            {
              "internalType": "uint64",
              "name": "_winnerId",
              "type": "uint64"
            },
            {
              "internalType": "string",
              "name": "tenderText",
              "type": "string"
            }
          ],
          "internalType": "struct BindingContract.BindingData",
          "name": "",
          "type": "tuple"
        }
      ],
      "stateMutability": "view",
      "type": "function",
      "constant": true
    },
    {
      "inputs": [
        {
          "internalType": "uint8",
          "name": "_bidType",
          "type": "uint8"
        },
        {
          "internalType": "address",
          "name": "_address",
          "type": "address"
        }
      ],
      "name": "getBindings",
      "outputs": [
        {
          "components": [
            {
              "internalType": "uint64",
              "name": "bindingId",
              "type": "uint64"
            },
            {
              "internalType": "bytes32",
              "name": "name",
              "type": "bytes32"
            },
            {
              "internalType": "uint64",
              "name": "startDate",
              "type": "uint64"
            },
            {
              "internalType": "uint64",
              "name": "endDate",
              "type": "uint64"
            },
            {
              "internalType": "bytes16[]",
              "name": "details",
              "type": "bytes16[]"
            },
            {
              "internalType": "uint8[]",
              "name": "points",
              "type": "uint8[]"
            },
            {
              "internalType": "address",
              "name": "municipalityAddress",
              "type": "address"
            },
            {
              "internalType": "bool",
              "name": "isCanceled",
              "type": "bool"
            },
            {
              "internalType": "bool",
              "name": "isOpened",
              "type": "bool"
            },
            {
              "internalType": "uint64",
              "name": "_winnerId",
              "type": "uint64"
            },
            {
              "internalType": "string",
              "name": "tenderText",
              "type": "string"
            }
          ],
          "internalType": "struct BindingContract.BindingData[]",
          "name": "",
          "type": "tuple[]"
        }
      ],
      "stateMutability": "view",
      "type": "function",
      "constant": true
    },
    {
      "inputs": [
        {
          "internalType": "uint64",
          "name": "_bindingId",
          "type": "uint64"
        },
        {
          "internalType": "uint64",
          "name": "_requestId",
          "type": "uint64"
        },
        {
          "internalType": "uint8",
          "name": "_type",
          "type": "uint8"
        }
      ],
      "name": "openCanceleTender",
      "outputs": [],
      "stateMutability": "payable",
      "type": "function",
      "payable": true
    },
    {
      "inputs": [
        {
          "internalType": "uint64",
          "name": "bindingId",
          "type": "uint64"
        }
      ],
      "name": "isActive",
      "outputs": [
        {
          "internalType": "bool",
          "name": "",
          "type": "bool"
        }
      ],
      "stateMutability": "view",
      "type": "function",
      "constant": true
    },
    {
      "inputs": [
        {
          "internalType": "address",
          "name": "_address",
          "type": "address"
        },
        {
          "internalType": "uint8",
          "name": "_type",
          "type": "uint8"
        }
      ],
      "name": "getProfile",
      "outputs": [
        {
          "internalType": "uint64",
          "name": "companyId",
          "type": "uint64"
        },
        {
          "internalType": "bytes16",
          "name": "name",
          "type": "bytes16"
        },
        {
          "internalType": "bytes16",
          "name": "phoneNo",
          "type": "bytes16"
        }
      ],
      "stateMutability": "view",
      "type": "function",
      "constant": true
    },
    {
      "inputs": [
        {
          "internalType": "uint64",
          "name": "_companyId",
          "type": "uint64"
        },
        {
          "internalType": "uint32",
          "name": "_price",
          "type": "uint32"
        },
        {
          "internalType": "uint64",
          "name": "_bindingId",
          "type": "uint64"
        },
        {
          "internalType": "bytes16[]",
          "name": "_details",
          "type": "bytes16[]"
        },
        {
          "internalType": "string",
          "name": "_text",
          "type": "string"
        },
        {
          "internalType": "uint64",
          "name": "_startDate",
          "type": "uint64"
        },
        {
          "internalType": "uint64",
          "name": "_endDate",
          "type": "uint64"
        }
      ],
      "name": "requestToBinding",
      "outputs": [],
      "stateMutability": "payable",
      "type": "function",
      "payable": true
    },
    {
      "inputs": [
        {
          "internalType": "uint64",
          "name": "_requestId",
          "type": "uint64"
        }
      ],
      "name": "getBindingRequestByRequestId",
      "outputs": [
        {
          "components": [
            {
              "internalType": "uint64",
              "name": "requestId",
              "type": "uint64"
            },
            {
              "internalType": "uint64",
              "name": "companyId",
              "type": "uint64"
            },
            {
              "internalType": "uint32",
              "name": "price",
              "type": "uint32"
            },
            {
              "internalType": "uint64",
              "name": "bindingId",
              "type": "uint64"
            },
            {
              "internalType": "bytes16[]",
              "name": "details",
              "type": "bytes16[]"
            },
            {
              "internalType": "address",
              "name": "companyAddress",
              "type": "address"
            },
            {
              "internalType": "bool",
              "name": "isWinner",
              "type": "bool"
            },
            {
              "internalType": "string",
              "name": "text",
              "type": "string"
            },
            {
              "internalType": "uint64",
              "name": "startDate",
              "type": "uint64"
            },
            {
              "internalType": "uint64",
              "name": "endDate",
              "type": "uint64"
            }
          ],
          "internalType": "struct BindingContract.RequestBinding",
          "name": "",
          "type": "tuple"
        }
      ],
      "stateMutability": "view",
      "type": "function",
      "constant": true
    },
    {
      "inputs": [],
      "name": "getUserType",
      "outputs": [
        {
          "internalType": "int8",
          "name": "",
          "type": "int8"
        }
      ],
      "stateMutability": "view",
      "type": "function",
      "constant": true
    },
    {
      "inputs": [
        {
          "internalType": "uint64",
          "name": "_type",
          "type": "uint64"
        }
      ],
      "name": "getCountOf",
      "outputs": [
        {
          "internalType": "uint64",
          "name": "",
          "type": "uint64"
        }
      ],
      "stateMutability": "view",
      "type": "function",
      "constant": true
    },
    {
      "inputs": [
        {
          "internalType": "address",
          "name": "_companyAddress",
          "type": "address"
        },
        {
          "internalType": "uint64",
          "name": "_bindingId",
          "type": "uint64"
        }
      ],
      "name": "getContractsRequest",
      "outputs": [
        {
          "components": [
            {
              "internalType": "uint64",
              "name": "requestId",
              "type": "uint64"
            },
            {
              "internalType": "uint64",
              "name": "companyId",
              "type": "uint64"
            },
            {
              "internalType": "uint32",
              "name": "price",
              "type": "uint32"
            },
            {
              "internalType": "uint64",
              "name": "bindingId",
              "type": "uint64"
            },
            {
              "internalType": "bytes16[]",
              "name": "details",
              "type": "bytes16[]"
            },
            {
              "internalType": "address",
              "name": "companyAddress",
              "type": "address"
            },
            {
              "internalType": "bool",
              "name": "isWinner",
              "type": "bool"
            },
            {
              "internalType": "string",
              "name": "text",
              "type": "string"
            },
            {
              "internalType": "uint64",
              "name": "startDate",
              "type": "uint64"
            },
            {
              "internalType": "uint64",
              "name": "endDate",
              "type": "uint64"
            }
          ],
          "internalType": "struct BindingContract.RequestBinding[]",
          "name": "",
          "type": "tuple[]"
        }
      ],
      "stateMutability": "view",
      "type": "function",
      "constant": true
    }
  ],
  "bytecode": "0x608060405234801561001057600080fd5b5060008060006101000a81548167ffffffffffffffff021916908367ffffffffffffffff16021790555060008060086101000a81548167ffffffffffffffff021916908367ffffffffffffffff16021790555060008060106101000a81548167ffffffffffffffff021916908367ffffffffffffffff16021790555060008060186101000a81548167ffffffffffffffff021916908367ffffffffffffffff160217905550615e8e80620000c56000396000f3fe6080604052600436106100f35760003560e01c80633d86dea41161008a578063c3e0f45111610059578063c3e0f4511461036c578063c44f45fe14610388578063e6125de7146103c8578063fb80983914610405576100f3565b80633d86dea4146102a157806341990077146102e65780637a78bfb414610311578063c085808514610350576100f3565b8063280486e1116100c6578063280486e1146101ce57806331013f9a1461020b57806334abcac91461022757806339d13f3014610264576100f3565b8063137e125c146100f85780631a41a07b146101145780631a4d0aae14610151578063232dd15714610191575b600080fd5b610112600480360381019061010d9190614ddb565b61044a565b005b34801561012057600080fd5b5061013b60048036038101906101369190614ebc565b610783565b6040516101489190614ef8565b60405180910390f35b34801561015d57600080fd5b5061017860048036038101906101739190614f71565b610850565b6040516101889493929190614fbc565b60405180910390f35b34801561019d57600080fd5b506101b860048036038101906101b39190614ebc565b6108ce565b6040516101c5919061534a565b60405180910390f35b3480156101da57600080fd5b506101f560048036038101906101f0919061536c565b610c41565b604051610202919061556e565b60405180910390f35b61022560048036038101906102209190615590565b611558565b005b34801561023357600080fd5b5061024e60048036038101906102499190614ebc565b611a9d565b60405161025b91906155f2565b60405180910390f35b34801561027057600080fd5b5061028b60048036038101906102869190614ebc565b611b88565b60405161029891906156ee565b60405180910390f35b3480156102ad57600080fd5b506102c860048036038101906102c39190614ebc565b611ecc565b6040516102dd99989796959493929190615769565b60405180910390f35b3480156102f257600080fd5b506102fb61202c565b6040516103089190615819565b60405180910390f35b34801561031d57600080fd5b5061033860048036038101906103339190615834565b612136565b60405161034793929190615874565b60405180910390f35b61036a600480360381019061036591906158ab565b61234d565b005b6103866004803603810190610381919061592a565b61275b565b005b34801561039457600080fd5b506103af60048036038101906103aa9190614f71565b612c64565b6040516103bf9493929190614fbc565b60405180910390f35b3480156103d457600080fd5b506103ef60048036038101906103ea9190615a04565b612ce2565b6040516103fc9190615c03565b60405180910390f35b34801561041157600080fd5b5061042c60048036038101906104279190614ebc565b614527565b60405161044199989796959493929190615c34565b60405180910390f35b815183511480156104655750600061046061202c565b60000b145b6104a4576040517f08c379a000000000000000000000000000000000000000000000000000000000815260040161049b90615d14565b60405180910390fd5b60008081819054906101000a900467ffffffffffffffff16809291906104c990615d63565b91906101000a81548167ffffffffffffffff021916908367ffffffffffffffff1602179055505060405180610160016040528060008054906101000a900467ffffffffffffffff1667ffffffffffffffff1681526020018781526020018667ffffffffffffffff1681526020018567ffffffffffffffff1681526020018481526020018381526020013373ffffffffffffffffffffffffffffffffffffffff168152602001600015158152602001600015158152602001600067ffffffffffffffff16815260200182815250600360008060009054906101000a900467ffffffffffffffff1667ffffffffffffffff1667ffffffffffffffff16815260200190815260200160002060008201518160000160006101000a81548167ffffffffffffffff021916908367ffffffffffffffff1602179055506020820151816001015560408201518160020160006101000a81548167ffffffffffffffff021916908367ffffffffffffffff16021790555060608201518160020160086101000a81548167ffffffffffffffff021916908367ffffffffffffffff160217905550608082015181600301908051906020019061068492919061469e565b5060a08201518160040190805190602001906106a1929190614763565b5060c08201518160050160006101000a81548173ffffffffffffffffffffffffffffffffffffffff021916908373ffffffffffffffffffffffffffffffffffffffff16021790555060e08201518160050160146101000a81548160ff0219169083151502179055506101008201518160050160156101000a81548160ff0219169083151502179055506101208201518160050160166101000a81548167ffffffffffffffff021916908367ffffffffffffffff16021790555061014082015181600601908051906020019061077792919061480a565b50905050505050505050565b6000808267ffffffffffffffff1614156107b557600060189054906101000a900467ffffffffffffffff16905061084b565b60018267ffffffffffffffff1614156107e657600060109054906101000a900467ffffffffffffffff16905061084b565b60028267ffffffffffffffff1614156108155760008054906101000a900467ffffffffffffffff16905061084b565b60038267ffffffffffffffff16141561084657600060089054906101000a900467ffffffffffffffff16905061084b565b600090505b919050565b60026020528060005260406000206000915090508060000160009054906101000a900467ffffffffffffffff16908060000160089054906101000a900473ffffffffffffffffffffffffffffffffffffffff16908060010160009054906101000a900460801b908060010160109054906101000a900460801b905084565b6108d6614890565b60008054906101000a900467ffffffffffffffff1667ffffffffffffffff168267ffffffffffffffff1611610c3b57600360008367ffffffffffffffff1667ffffffffffffffff168152602001908152602001600020604051806101600160405290816000820160009054906101000a900467ffffffffffffffff1667ffffffffffffffff1667ffffffffffffffff168152602001600182015481526020016002820160009054906101000a900467ffffffffffffffff1667ffffffffffffffff1667ffffffffffffffff1681526020016002820160089054906101000a900467ffffffffffffffff1667ffffffffffffffff1667ffffffffffffffff16815260200160038201805480602002602001604051908101604052809291908181526020018280548015610a5d57602002820191906000526020600020906000905b82829054906101000a900460801b6fffffffffffffffffffffffffffffffff191681526020019060100190602082600f01049283019260010382029150808411610a165790505b5050505050815260200160048201805480602002602001604051908101604052809291908181526020018280548015610adb57602002820191906000526020600020906000905b82829054906101000a900460ff1660ff1681526020019060010190602082600001049283019260010382029150808411610aa45790505b505050505081526020016005820160009054906101000a900473ffffffffffffffffffffffffffffffffffffffff1673ffffffffffffffffffffffffffffffffffffffff1673ffffffffffffffffffffffffffffffffffffffff1681526020016005820160149054906101000a900460ff161515151581526020016005820160159054906101000a900460ff161515151581526020016005820160169054906101000a900467ffffffffffffffff1667ffffffffffffffff1667ffffffffffffffff168152602001600682018054610bb290615dc3565b80601f0160208091040260200160405190810160405280929190818152602001828054610bde90615dc3565b8015610c2b5780601f10610c0057610100808354040283529160200191610c2b565b820191906000526020600020905b815481529060010190602001808311610c0e57829003601f168201915b5050505050815250509050610c3c565b5b919050565b6060610c4c82611a9d565b6115515760008060089054906101000a900467ffffffffffffffff1667ffffffffffffffff1667ffffffffffffffff811115610c8b57610c8a614a8f565b5b604051908082528060200260200182016040528015610cc457816020015b610cb161492f565b815260200190600190039081610ca95790505b50905060008080600190505b600060089054906101000a900467ffffffffffffffff1667ffffffffffffffff168167ffffffffffffffff16116114db578173ffffffffffffffffffffffffffffffffffffffff168773ffffffffffffffffffffffffffffffffffffffff1614158015610d47575060008667ffffffffffffffff16145b8015610dc857508673ffffffffffffffffffffffffffffffffffffffff16600460008367ffffffffffffffff1667ffffffffffffffff16815260200190815260200160002060020160009054906101000a900473ffffffffffffffffffffffffffffffffffffffff1673ffffffffffffffffffffffffffffffffffffffff16145b156110f857600460008267ffffffffffffffff1667ffffffffffffffff168152602001908152602001600020604051806101400160405290816000820160009054906101000a900467ffffffffffffffff1667ffffffffffffffff1667ffffffffffffffff1681526020016000820160089054906101000a900467ffffffffffffffff1667ffffffffffffffff1667ffffffffffffffff1681526020016000820160109054906101000a900463ffffffff1663ffffffff1663ffffffff1681526020016000820160149054906101000a900467ffffffffffffffff1667ffffffffffffffff1667ffffffffffffffff16815260200160018201805480602002602001604051908101604052809291908181526020018280548015610f4157602002820191906000526020600020906000905b82829054906101000a900460801b6fffffffffffffffffffffffffffffffff191681526020019060100190602082600f01049283019260010382029150808411610efa5790505b505050505081526020016002820160009054906101000a900473ffffffffffffffffffffffffffffffffffffffff1673ffffffffffffffffffffffffffffffffffffffff1673ffffffffffffffffffffffffffffffffffffffff1681526020016002820160149054906101000a900460ff16151515158152602001600382018054610fcb90615dc3565b80601f0160208091040260200160405190810160405280929190818152602001828054610ff790615dc3565b80156110445780601f1061101957610100808354040283529160200191611044565b820191906000526020600020905b81548152906001019060200180831161102757829003601f168201915b505050505081526020016004820160009054906101000a900467ffffffffffffffff1667ffffffffffffffff1667ffffffffffffffff1681526020016004820160089054906101000a900467ffffffffffffffff1667ffffffffffffffff1667ffffffffffffffff1681525050846001836110bf9190615df5565b67ffffffffffffffff16815181106110da576110d9615e29565b5b602002602001018190525082806110f090615d63565b9350506114c8565b8173ffffffffffffffffffffffffffffffffffffffff168773ffffffffffffffffffffffffffffffffffffffff1614801561113e575060008667ffffffffffffffff1614155b801561119b57508567ffffffffffffffff16600460008367ffffffffffffffff1667ffffffffffffffff16815260200190815260200160002060000160149054906101000a900467ffffffffffffffff1667ffffffffffffffff16145b156114c757600460008267ffffffffffffffff1667ffffffffffffffff168152602001908152602001600020604051806101400160405290816000820160009054906101000a900467ffffffffffffffff1667ffffffffffffffff1667ffffffffffffffff1681526020016000820160089054906101000a900467ffffffffffffffff1667ffffffffffffffff1667ffffffffffffffff1681526020016000820160109054906101000a900463ffffffff1663ffffffff1663ffffffff1681526020016000820160149054906101000a900467ffffffffffffffff1667ffffffffffffffff1667ffffffffffffffff1681526020016001820180548060200260200160405190810160405280929190818152602001828054801561131457602002820191906000526020600020906000905b82829054906101000a900460801b6fffffffffffffffffffffffffffffffff191681526020019060100190602082600f010492830192600103820291508084116112cd5790505b505050505081526020016002820160009054906101000a900473ffffffffffffffffffffffffffffffffffffffff1673ffffffffffffffffffffffffffffffffffffffff1673ffffffffffffffffffffffffffffffffffffffff1681526020016002820160149054906101000a900460ff1615151515815260200160038201805461139e90615dc3565b80601f01602080910402602001604051908101604052809291908181526020018280546113ca90615dc3565b80156114175780601f106113ec57610100808354040283529160200191611417565b820191906000526020600020905b8154815290600101906020018083116113fa57829003601f168201915b505050505081526020016004820160009054906101000a900467ffffffffffffffff1667ffffffffffffffff1667ffffffffffffffff1681526020016004820160089054906101000a900467ffffffffffffffff1667ffffffffffffffff1667ffffffffffffffff1681525050846001836114929190615df5565b67ffffffffffffffff16815181106114ad576114ac615e29565b5b602002602001018190525082806114c390615d63565b9350505b5b80806114d390615d63565b915050610cd0565b5060008267ffffffffffffffff1667ffffffffffffffff81111561150257611501614a8f565b5b60405190808252806020026020018201604052801561153b57816020015b61152861492f565b8152602001906001900390816115205790505b5090508390506060935080945050505050611552565b5b92915050565b60008054906101000a900467ffffffffffffffff1667ffffffffffffffff168367ffffffffffffffff16111580156116055750600360008467ffffffffffffffff1667ffffffffffffffff16815260200190815260200160002060050160009054906101000a900473ffffffffffffffffffffffffffffffffffffffff1673ffffffffffffffffffffffffffffffffffffffff163373ffffffffffffffffffffffffffffffffffffffff16145b80156116465750600360008467ffffffffffffffff1667ffffffffffffffff16815260200190815260200160002060050160159054906101000a900460ff16155b80156116875750600360008467ffffffffffffffff1667ffffffffffffffff16815260200190815260200160002060050160149054906101000a900460ff16155b6116c6576040517f08c379a00000000000000000000000000000000000000000000000000000000081526004016116bd90615d14565b60405180910390fd5b60008160ff161415611a475760036000600460008567ffffffffffffffff1667ffffffffffffffff16815260200190815260200160002060000160149054906101000a900467ffffffffffffffff1667ffffffffffffffff1667ffffffffffffffff16815260200190815260200160002060050160009054906101000a900473ffffffffffffffffffffffffffffffffffffffff1673ffffffffffffffffffffffffffffffffffffffff163373ffffffffffffffffffffffffffffffffffffffff16148015611808575060036000600460008567ffffffffffffffff1667ffffffffffffffff16815260200190815260200160002060000160149054906101000a900467ffffffffffffffff1667ffffffffffffffff1667ffffffffffffffff16815260200190815260200160002060050160159054906101000a900460ff16155b8015611887575060036000600460008567ffffffffffffffff1667ffffffffffffffff16815260200190815260200160002060000160149054906101000a900467ffffffffffffffff1667ffffffffffffffff1667ffffffffffffffff16815260200190815260200160002060050160149054906101000a900460ff16155b80156118bd5750600060089054906101000a900467ffffffffffffffff1667ffffffffffffffff168267ffffffffffffffff1611155b801561191a57508267ffffffffffffffff16600460008467ffffffffffffffff1667ffffffffffffffff16815260200190815260200160002060000160149054906101000a900467ffffffffffffffff1667ffffffffffffffff16145b801561192c575061192a83611a9d565b155b61196b576040517f08c379a000000000000000000000000000000000000000000000000000000000815260040161196290615d14565b60405180910390fd5b6001600360008567ffffffffffffffff1667ffffffffffffffff16815260200190815260200160002060050160156101000a81548160ff02191690831515021790555081600360008567ffffffffffffffff1667ffffffffffffffff16815260200190815260200160002060050160166101000a81548167ffffffffffffffff021916908367ffffffffffffffff1602179055506001600460008467ffffffffffffffff1667ffffffffffffffff16815260200190815260200160002060020160146101000a81548160ff021916908315150217905550611a98565b60018160ff161415611a97576001600360008567ffffffffffffffff1667ffffffffffffffff16815260200190815260200160002060050160146101000a81548160ff0219169083151502179055505b5b505050565b60008060009054906101000a900467ffffffffffffffff1667ffffffffffffffff168267ffffffffffffffff1611611b7e5742600360008467ffffffffffffffff1667ffffffffffffffff16815260200190815260200160002060020160089054906101000a900467ffffffffffffffff1667ffffffffffffffff1610158015611b6f575042600360008467ffffffffffffffff1667ffffffffffffffff16815260200190815260200160002060020160009054906101000a900467ffffffffffffffff1667ffffffffffffffff1611155b15611b7d5760019050611b83565b5b600090505b919050565b611b9061492f565b611bd7600460008467ffffffffffffffff1667ffffffffffffffff16815260200190815260200160002060000160149054906101000a900467ffffffffffffffff16611a9d565b611ec657600460008367ffffffffffffffff1667ffffffffffffffff168152602001908152602001600020604051806101400160405290816000820160009054906101000a900467ffffffffffffffff1667ffffffffffffffff1667ffffffffffffffff1681526020016000820160089054906101000a900467ffffffffffffffff1667ffffffffffffffff1667ffffffffffffffff1681526020016000820160109054906101000a900463ffffffff1663ffffffff1663ffffffff1681526020016000820160149054906101000a900467ffffffffffffffff1667ffffffffffffffff1667ffffffffffffffff16815260200160018201805480602002602001604051908101604052809291908181526020018280548015611d4f57602002820191906000526020600020906000905b82829054906101000a900460801b6fffffffffffffffffffffffffffffffff191681526020019060100190602082600f01049283019260010382029150808411611d085790505b505050505081526020016002820160009054906101000a900473ffffffffffffffffffffffffffffffffffffffff1673ffffffffffffffffffffffffffffffffffffffff1673ffffffffffffffffffffffffffffffffffffffff1681526020016002820160149054906101000a900460ff16151515158152602001600382018054611dd990615dc3565b80601f0160208091040260200160405190810160405280929190818152602001828054611e0590615dc3565b8015611e525780601f10611e2757610100808354040283529160200191611e52565b820191906000526020600020905b815481529060010190602001808311611e3557829003601f168201915b505050505081526020016004820160009054906101000a900467ffffffffffffffff1667ffffffffffffffff1667ffffffffffffffff1681526020016004820160089054906101000a900467ffffffffffffffff1667ffffffffffffffff1667ffffffffffffffff16815250509050611ec7565b5b919050565b60036020528060005260406000206000915090508060000160009054906101000a900467ffffffffffffffff16908060010154908060020160009054906101000a900467ffffffffffffffff16908060020160089054906101000a900467ffffffffffffffff16908060050160009054906101000a900473ffffffffffffffffffffffffffffffffffffffff16908060050160149054906101000a900460ff16908060050160159054906101000a900460ff16908060050160169054906101000a900467ffffffffffffffff1690806006018054611fa990615dc3565b80601f0160208091040260200160405190810160405280929190818152602001828054611fd590615dc3565b80156120225780601f10611ff757610100808354040283529160200191612022565b820191906000526020600020905b81548152906001019060200180831161200557829003601f168201915b5050505050905089565b600080600260003373ffffffffffffffffffffffffffffffffffffffff1673ffffffffffffffffffffffffffffffffffffffff16815260200190815260200160002060000160009054906101000a900467ffffffffffffffff1667ffffffffffffffff161461209e5760009050612133565b6000600160003373ffffffffffffffffffffffffffffffffffffffff1673ffffffffffffffffffffffffffffffffffffffff16815260200190815260200160002060000160009054906101000a900467ffffffffffffffff1667ffffffffffffffff161461210f5760019050612133565b7fffffffffffffffffffffffffffffffffffffffffffffffffffffffffffffffff90505b90565b6000806000808460ff16141561224857600260008673ffffffffffffffffffffffffffffffffffffffff1673ffffffffffffffffffffffffffffffffffffffff16815260200190815260200160002060000160009054906101000a900467ffffffffffffffff16600260008773ffffffffffffffffffffffffffffffffffffffff1673ffffffffffffffffffffffffffffffffffffffff16815260200190815260200160002060010160009054906101000a900460801b600260008873ffffffffffffffffffffffffffffffffffffffff1673ffffffffffffffffffffffffffffffffffffffff16815260200190815260200160002060010160109054906101000a900460801b925092509250612346565b600160008673ffffffffffffffffffffffffffffffffffffffff1673ffffffffffffffffffffffffffffffffffffffff16815260200190815260200160002060000160009054906101000a900467ffffffffffffffff16600160008773ffffffffffffffffffffffffffffffffffffffff1673ffffffffffffffffffffffffffffffffffffffff16815260200190815260200160002060010160009054906101000a900460801b600160008873ffffffffffffffffffffffffffffffffffffffff1673ffffffffffffffffffffffffffffffffffffffff16815260200190815260200160002060010160109054906101000a900460801b9250925092505b9250925092565b7fffffffffffffffffffffffffffffffffffffffffffffffffffffffffffffffff61237661202c565b60000b14156127565760008160ff161415612572576000601881819054906101000a900467ffffffffffffffff16809291906123b190615d63565b91906101000a81548167ffffffffffffffff021916908367ffffffffffffffff160217905550506040518060800160405280600060189054906101000a900467ffffffffffffffff1667ffffffffffffffff1681526020013373ffffffffffffffffffffffffffffffffffffffff168152602001846fffffffffffffffffffffffffffffffff19168152602001836fffffffffffffffffffffffffffffffff1916815250600260003373ffffffffffffffffffffffffffffffffffffffff1673ffffffffffffffffffffffffffffffffffffffff16815260200190815260200160002060008201518160000160006101000a81548167ffffffffffffffff021916908367ffffffffffffffff16021790555060208201518160000160086101000a81548173ffffffffffffffffffffffffffffffffffffffff021916908373ffffffffffffffffffffffffffffffffffffffff16021790555060408201518160010160006101000a8154816fffffffffffffffffffffffffffffffff021916908360801c021790555060608201518160010160106101000a8154816fffffffffffffffffffffffffffffffff021916908360801c0217905550905050612755565b6000601081819054906101000a900467ffffffffffffffff168092919061259890615d63565b91906101000a81548167ffffffffffffffff021916908367ffffffffffffffff160217905550506040518060800160405280600060109054906101000a900467ffffffffffffffff1667ffffffffffffffff1681526020013373ffffffffffffffffffffffffffffffffffffffff168152602001846fffffffffffffffffffffffffffffffff19168152602001836fffffffffffffffffffffffffffffffff1916815250600160003373ffffffffffffffffffffffffffffffffffffffff1673ffffffffffffffffffffffffffffffffffffffff16815260200190815260200160002060008201518160000160006101000a81548167ffffffffffffffff021916908367ffffffffffffffff16021790555060208201518160000160086101000a81548173ffffffffffffffffffffffffffffffffffffffff021916908373ffffffffffffffffffffffffffffffffffffffff16021790555060408201518160010160006101000a8154816fffffffffffffffffffffffffffffffff021916908360801c021790555060608201518160010160106101000a8154816fffffffffffffffffffffffffffffffff021916908360801c02179055509050505b5b505050565b600080600190505b600060089054906101000a900467ffffffffffffffff1667ffffffffffffffff168167ffffffffffffffff1611612867578667ffffffffffffffff16600460008367ffffffffffffffff1667ffffffffffffffff16815260200190815260200160002060000160149054906101000a900467ffffffffffffffff1667ffffffffffffffff1614801561284657508867ffffffffffffffff16600460008367ffffffffffffffff1667ffffffffffffffff16815260200190815260200160002060000160089054906101000a900467ffffffffffffffff1667ffffffffffffffff16145b156128545760019150612867565b808061285f90615d63565b915050612763565b50801580156128ab5750600360008767ffffffffffffffff1667ffffffffffffffff16815260200190815260200160002060050160159054906101000a900460ff16155b80156128ec5750600360008767ffffffffffffffff1667ffffffffffffffff16815260200190815260200160002060050160149054906101000a900460ff16155b80156128fd57506128fc86611a9d565b5b8015612917575061290d866108ce565b6080015151855111155b801561292d5750600161292861202c565b60000b145b61296c576040517f08c379a000000000000000000000000000000000000000000000000000000000815260040161296390615d14565b60405180910390fd5b6000600881819054906101000a900467ffffffffffffffff168092919061299290615d63565b91906101000a81548167ffffffffffffffff021916908367ffffffffffffffff16021790555050604051806101400160405280600060089054906101000a900467ffffffffffffffff1667ffffffffffffffff1681526020018967ffffffffffffffff1681526020018863ffffffff1681526020018767ffffffffffffffff1681526020018681526020013373ffffffffffffffffffffffffffffffffffffffff1681526020016000151581526020018581526020018467ffffffffffffffff1681526020018367ffffffffffffffff16815250600460008060089054906101000a900467ffffffffffffffff1667ffffffffffffffff1667ffffffffffffffff16815260200190815260200160002060008201518160000160006101000a81548167ffffffffffffffff021916908367ffffffffffffffff16021790555060208201518160000160086101000a81548167ffffffffffffffff021916908367ffffffffffffffff16021790555060408201518160000160106101000a81548163ffffffff021916908363ffffffff16021790555060608201518160000160146101000a81548167ffffffffffffffff021916908367ffffffffffffffff1602179055506080820151816001019080519060200190612b7292919061469e565b5060a08201518160020160006101000a81548173ffffffffffffffffffffffffffffffffffffffff021916908373ffffffffffffffffffffffffffffffffffffffff16021790555060c08201518160020160146101000a81548160ff02191690831515021790555060e0820151816003019080519060200190612bf692919061480a565b506101008201518160040160006101000a81548167ffffffffffffffff021916908367ffffffffffffffff1602179055506101208201518160040160086101000a81548167ffffffffffffffff021916908367ffffffffffffffff1602179055509050505050505050505050565b60016020528060005260406000206000915090508060000160009054906101000a900467ffffffffffffffff16908060000160089054906101000a900473ffffffffffffffffffffffffffffffffffffffff16908060010160009054906101000a900460801b908060010160109054906101000a900460801b905084565b606060008060009054906101000a900467ffffffffffffffff1667ffffffffffffffff1667ffffffffffffffff811115612d1f57612d1e614a8f565b5b604051908082528060200260200182016040528015612d5857816020015b612d45614890565b815260200190600190039081612d3d5790505b509050600080600090506000600190505b60008054906101000a900467ffffffffffffffff1667ffffffffffffffff168167ffffffffffffffff16116144b05760018760ff1614156131cf578273ffffffffffffffffffffffffffffffffffffffff168673ffffffffffffffffffffffffffffffffffffffff161480612e535750600360008267ffffffffffffffff1667ffffffffffffffff16815260200190815260200160002060050160009054906101000a900473ffffffffffffffffffffffffffffffffffffffff1673ffffffffffffffffffffffffffffffffffffffff168673ffffffffffffffffffffffffffffffffffffffff16145b156131ca57600360008267ffffffffffffffff1667ffffffffffffffff168152602001908152602001600020604051806101600160405290816000820160009054906101000a900467ffffffffffffffff1667ffffffffffffffff1667ffffffffffffffff168152602001600182015481526020016002820160009054906101000a900467ffffffffffffffff1667ffffffffffffffff1667ffffffffffffffff1681526020016002820160089054906101000a900467ffffffffffffffff1667ffffffffffffffff1667ffffffffffffffff16815260200160038201805480602002602001604051908101604052809291908181526020018280548015612fb057602002820191906000526020600020906000905b82829054906101000a900460801b6fffffffffffffffffffffffffffffffff191681526020019060100190602082600f01049283019260010382029150808411612f695790505b505050505081526020016004820180548060200260200160405190810160405280929190818152602001828054801561302e57602002820191906000526020600020906000905b82829054906101000a900460ff1660ff1681526020019060010190602082600001049283019260010382029150808411612ff75790505b505050505081526020016005820160009054906101000a900473ffffffffffffffffffffffffffffffffffffffff1673ffffffffffffffffffffffffffffffffffffffff1673ffffffffffffffffffffffffffffffffffffffff1681526020016005820160149054906101000a900460ff161515151581526020016005820160159054906101000a900460ff161515151581526020016005820160169054906101000a900467ffffffffffffffff1667ffffffffffffffff1667ffffffffffffffff16815260200160068201805461310590615dc3565b80601f016020809104026020016040519081016040528092919081815260200182805461313190615dc3565b801561317e5780601f106131535761010080835404028352916020019161317e565b820191906000526020600020905b81548152906001019060200180831161316157829003601f168201915b505050505081525050846001836131959190615df5565b67ffffffffffffffff16815181106131b0576131af615e29565b5b602002602001018190525081806131c690615d63565b9250505b61449d565b60028760ff161415613697576131e481611a9d565b80156132255750600360008267ffffffffffffffff1667ffffffffffffffff16815260200190815260200160002060050160149054906101000a900460ff16155b80156132665750600360008267ffffffffffffffff1667ffffffffffffffff16815260200190815260200160002060050160159054906101000a900460ff16155b15613692578273ffffffffffffffffffffffffffffffffffffffff168673ffffffffffffffffffffffffffffffffffffffff16148061331a5750600360008267ffffffffffffffff1667ffffffffffffffff16815260200190815260200160002060050160009054906101000a900473ffffffffffffffffffffffffffffffffffffffff1673ffffffffffffffffffffffffffffffffffffffff168673ffffffffffffffffffffffffffffffffffffffff16145b1561369157600360008267ffffffffffffffff1667ffffffffffffffff168152602001908152602001600020604051806101600160405290816000820160009054906101000a900467ffffffffffffffff1667ffffffffffffffff1667ffffffffffffffff168152602001600182015481526020016002820160009054906101000a900467ffffffffffffffff1667ffffffffffffffff1667ffffffffffffffff1681526020016002820160089054906101000a900467ffffffffffffffff1667ffffffffffffffff1667ffffffffffffffff1681526020016003820180548060200260200160405190810160405280929190818152602001828054801561347757602002820191906000526020600020906000905b82829054906101000a900460801b6fffffffffffffffffffffffffffffffff191681526020019060100190602082600f010492830192600103820291508084116134305790505b50505050508152602001600482018054806020026020016040519081016040528092919081815260200182805480156134f557602002820191906000526020600020906000905b82829054906101000a900460ff1660ff16815260200190600101906020826000010492830192600103820291508084116134be5790505b505050505081526020016005820160009054906101000a900473ffffffffffffffffffffffffffffffffffffffff1673ffffffffffffffffffffffffffffffffffffffff1673ffffffffffffffffffffffffffffffffffffffff1681526020016005820160149054906101000a900460ff161515151581526020016005820160159054906101000a900460ff161515151581526020016005820160169054906101000a900467ffffffffffffffff1667ffffffffffffffff1667ffffffffffffffff1681526020016006820180546135cc90615dc3565b80601f01602080910402602001604051908101604052809291908181526020018280546135f890615dc3565b80156136455780601f1061361a57610100808354040283529160200191613645565b820191906000526020600020905b81548152906001019060200180831161362857829003601f168201915b5050505050815250508460018361365c9190615df5565b67ffffffffffffffff168151811061367757613676615e29565b5b6020026020010181905250818061368d90615d63565b9250505b5b61449c565b60038760ff161415613b60576136ac81611a9d565b1580156136ee5750600360008267ffffffffffffffff1667ffffffffffffffff16815260200190815260200160002060050160149054906101000a900460ff16155b801561372f5750600360008267ffffffffffffffff1667ffffffffffffffff16815260200190815260200160002060050160159054906101000a900460ff16155b15613b5b578273ffffffffffffffffffffffffffffffffffffffff168673ffffffffffffffffffffffffffffffffffffffff1614806137e35750600360008267ffffffffffffffff1667ffffffffffffffff16815260200190815260200160002060050160009054906101000a900473ffffffffffffffffffffffffffffffffffffffff1673ffffffffffffffffffffffffffffffffffffffff168673ffffffffffffffffffffffffffffffffffffffff16145b15613b5a57600360008267ffffffffffffffff1667ffffffffffffffff168152602001908152602001600020604051806101600160405290816000820160009054906101000a900467ffffffffffffffff1667ffffffffffffffff1667ffffffffffffffff168152602001600182015481526020016002820160009054906101000a900467ffffffffffffffff1667ffffffffffffffff1667ffffffffffffffff1681526020016002820160089054906101000a900467ffffffffffffffff1667ffffffffffffffff1667ffffffffffffffff1681526020016003820180548060200260200160405190810160405280929190818152602001828054801561394057602002820191906000526020600020906000905b82829054906101000a900460801b6fffffffffffffffffffffffffffffffff191681526020019060100190602082600f010492830192600103820291508084116138f95790505b50505050508152602001600482018054806020026020016040519081016040528092919081815260200182805480156139be57602002820191906000526020600020906000905b82829054906101000a900460ff1660ff16815260200190600101906020826000010492830192600103820291508084116139875790505b505050505081526020016005820160009054906101000a900473ffffffffffffffffffffffffffffffffffffffff1673ffffffffffffffffffffffffffffffffffffffff1673ffffffffffffffffffffffffffffffffffffffff1681526020016005820160149054906101000a900460ff161515151581526020016005820160159054906101000a900460ff161515151581526020016005820160169054906101000a900467ffffffffffffffff1667ffffffffffffffff1667ffffffffffffffff168152602001600682018054613a9590615dc3565b80601f0160208091040260200160405190810160405280929190818152602001828054613ac190615dc3565b8015613b0e5780601f10613ae357610100808354040283529160200191613b0e565b820191906000526020600020905b815481529060010190602001808311613af157829003601f168201915b50505050508152505084600183613b259190615df5565b67ffffffffffffffff1681518110613b4057613b3f615e29565b5b60200260200101819052508180613b5690615d63565b9250505b5b61449b565b60048760ff16141561402857613b7581611a9d565b158015613bb75750600360008267ffffffffffffffff1667ffffffffffffffff16815260200190815260200160002060050160149054906101000a900460ff16155b8015613bf75750600360008267ffffffffffffffff1667ffffffffffffffff16815260200190815260200160002060050160159054906101000a900460ff165b15614023578273ffffffffffffffffffffffffffffffffffffffff168673ffffffffffffffffffffffffffffffffffffffff161480613cab5750600360008267ffffffffffffffff1667ffffffffffffffff16815260200190815260200160002060050160009054906101000a900473ffffffffffffffffffffffffffffffffffffffff1673ffffffffffffffffffffffffffffffffffffffff168673ffffffffffffffffffffffffffffffffffffffff16145b1561402257600360008267ffffffffffffffff1667ffffffffffffffff168152602001908152602001600020604051806101600160405290816000820160009054906101000a900467ffffffffffffffff1667ffffffffffffffff1667ffffffffffffffff168152602001600182015481526020016002820160009054906101000a900467ffffffffffffffff1667ffffffffffffffff1667ffffffffffffffff1681526020016002820160089054906101000a900467ffffffffffffffff1667ffffffffffffffff1667ffffffffffffffff16815260200160038201805480602002602001604051908101604052809291908181526020018280548015613e0857602002820191906000526020600020906000905b82829054906101000a900460801b6fffffffffffffffffffffffffffffffff191681526020019060100190602082600f01049283019260010382029150808411613dc15790505b5050505050815260200160048201805480602002602001604051908101604052809291908181526020018280548015613e8657602002820191906000526020600020906000905b82829054906101000a900460ff1660ff1681526020019060010190602082600001049283019260010382029150808411613e4f5790505b505050505081526020016005820160009054906101000a900473ffffffffffffffffffffffffffffffffffffffff1673ffffffffffffffffffffffffffffffffffffffff1673ffffffffffffffffffffffffffffffffffffffff1681526020016005820160149054906101000a900460ff161515151581526020016005820160159054906101000a900460ff161515151581526020016005820160169054906101000a900467ffffffffffffffff1667ffffffffffffffff1667ffffffffffffffff168152602001600682018054613f5d90615dc3565b80601f0160208091040260200160405190810160405280929190818152602001828054613f8990615dc3565b8015613fd65780601f10613fab57610100808354040283529160200191613fd6565b820191906000526020600020905b815481529060010190602001808311613fb957829003601f168201915b50505050508152505084600183613fed9190615df5565b67ffffffffffffffff168151811061400857614007615e29565b5b6020026020010181905250818061401e90615d63565b9250505b5b61449a565b60058760ff16141561449957600360008267ffffffffffffffff1667ffffffffffffffff16815260200190815260200160002060050160149054906101000a900460ff1615614498578273ffffffffffffffffffffffffffffffffffffffff168673ffffffffffffffffffffffffffffffffffffffff1614806141205750600360008267ffffffffffffffff1667ffffffffffffffff16815260200190815260200160002060050160009054906101000a900473ffffffffffffffffffffffffffffffffffffffff1673ffffffffffffffffffffffffffffffffffffffff168673ffffffffffffffffffffffffffffffffffffffff16145b1561449757600360008267ffffffffffffffff1667ffffffffffffffff168152602001908152602001600020604051806101600160405290816000820160009054906101000a900467ffffffffffffffff1667ffffffffffffffff1667ffffffffffffffff168152602001600182015481526020016002820160009054906101000a900467ffffffffffffffff1667ffffffffffffffff1667ffffffffffffffff1681526020016002820160089054906101000a900467ffffffffffffffff1667ffffffffffffffff1667ffffffffffffffff1681526020016003820180548060200260200160405190810160405280929190818152602001828054801561427d57602002820191906000526020600020906000905b82829054906101000a900460801b6fffffffffffffffffffffffffffffffff191681526020019060100190602082600f010492830192600103820291508084116142365790505b50505050508152602001600482018054806020026020016040519081016040528092919081815260200182805480156142fb57602002820191906000526020600020906000905b82829054906101000a900460ff1660ff16815260200190600101906020826000010492830192600103820291508084116142c45790505b505050505081526020016005820160009054906101000a900473ffffffffffffffffffffffffffffffffffffffff1673ffffffffffffffffffffffffffffffffffffffff1673ffffffffffffffffffffffffffffffffffffffff1681526020016005820160149054906101000a900460ff161515151581526020016005820160159054906101000a900460ff161515151581526020016005820160169054906101000a900467ffffffffffffffff1667ffffffffffffffff1667ffffffffffffffff1681526020016006820180546143d290615dc3565b80601f01602080910402602001604051908101604052809291908181526020018280546143fe90615dc3565b801561444b5780601f106144205761010080835404028352916020019161444b565b820191906000526020600020905b81548152906001019060200180831161442e57829003601f168201915b505050505081525050846001836144629190615df5565b67ffffffffffffffff168151811061447d5761447c615e29565b5b6020026020010181905250818061449390615d63565b9250505b5b5b5b5b5b5b80806144a890615d63565b915050612d69565b5060008167ffffffffffffffff1667ffffffffffffffff8111156144d7576144d6614a8f565b5b60405190808252806020026020018201604052801561451057816020015b6144fd614890565b8152602001906001900390816144f55790505b509050839050606093508094505050505092915050565b60046020528060005260406000206000915090508060000160009054906101000a900467ffffffffffffffff16908060000160089054906101000a900467ffffffffffffffff16908060000160109054906101000a900463ffffffff16908060000160149054906101000a900467ffffffffffffffff16908060020160009054906101000a900473ffffffffffffffffffffffffffffffffffffffff16908060020160149054906101000a900460ff16908060030180546145e790615dc3565b80601f016020809104026020016040519081016040528092919081815260200182805461461390615dc3565b80156146605780601f1061463557610100808354040283529160200191614660565b820191906000526020600020905b81548152906001019060200180831161464357829003601f168201915b5050505050908060040160009054906101000a900467ffffffffffffffff16908060040160089054906101000a900467ffffffffffffffff16905089565b828054828255906000526020600020906001016002900481019282156147525791602002820160005b8382111561471457835183826101000a8154816fffffffffffffffffffffffffffffffff021916908360801c02179055509260200192601001602081600f010492830192600103026146c7565b80156147505782816101000a8154906fffffffffffffffffffffffffffffffff0219169055601001602081600f01049283019260010302614714565b505b50905061475f91906149d2565b5090565b82805482825590600052602060002090601f016020900481019282156147f95791602002820160005b838211156147ca57835183826101000a81548160ff021916908360ff160217905550926020019260010160208160000104928301926001030261478c565b80156147f75782816101000a81549060ff02191690556001016020816000010492830192600103026147ca565b505b50905061480691906149d2565b5090565b82805461481690615dc3565b90600052602060002090601f016020900481019282614838576000855561487f565b82601f1061485157805160ff191683800117855561487f565b8280016001018555821561487f579182015b8281111561487e578251825591602001919060010190614863565b5b50905061488c91906149d2565b5090565b604051806101600160405280600067ffffffffffffffff16815260200160008019168152602001600067ffffffffffffffff168152602001600067ffffffffffffffff1681526020016060815260200160608152602001600073ffffffffffffffffffffffffffffffffffffffff168152602001600015158152602001600015158152602001600067ffffffffffffffff168152602001606081525090565b604051806101400160405280600067ffffffffffffffff168152602001600067ffffffffffffffff168152602001600063ffffffff168152602001600067ffffffffffffffff16815260200160608152602001600073ffffffffffffffffffffffffffffffffffffffff16815260200160001515815260200160608152602001600067ffffffffffffffff168152602001600067ffffffffffffffff1681525090565b5b808211156149eb5760008160009055506001016149d3565b5090565b6000604051905090565b600080fd5b600080fd5b6000819050919050565b614a1681614a03565b8114614a2157600080fd5b50565b600081359050614a3381614a0d565b92915050565b600067ffffffffffffffff82169050919050565b614a5681614a39565b8114614a6157600080fd5b50565b600081359050614a7381614a4d565b92915050565b600080fd5b6000601f19601f8301169050919050565b7f4e487b7100000000000000000000000000000000000000000000000000000000600052604160045260246000fd5b614ac782614a7e565b810181811067ffffffffffffffff82111715614ae657614ae5614a8f565b5b80604052505050565b6000614af96149ef565b9050614b058282614abe565b919050565b600067ffffffffffffffff821115614b2557614b24614a8f565b5b602082029050602081019050919050565b600080fd5b60007fffffffffffffffffffffffffffffffff0000000000000000000000000000000082169050919050565b614b7081614b3b565b8114614b7b57600080fd5b50565b600081359050614b8d81614b67565b92915050565b6000614ba6614ba184614b0a565b614aef565b90508083825260208201905060208402830185811115614bc957614bc8614b36565b5b835b81811015614bf25780614bde8882614b7e565b845260208401935050602081019050614bcb565b5050509392505050565b600082601f830112614c1157614c10614a79565b5b8135614c21848260208601614b93565b91505092915050565b600067ffffffffffffffff821115614c4557614c44614a8f565b5b602082029050602081019050919050565b600060ff82169050919050565b614c6c81614c56565b8114614c7757600080fd5b50565b600081359050614c8981614c63565b92915050565b6000614ca2614c9d84614c2a565b614aef565b90508083825260208201905060208402830185811115614cc557614cc4614b36565b5b835b81811015614cee5780614cda8882614c7a565b845260208401935050602081019050614cc7565b5050509392505050565b600082601f830112614d0d57614d0c614a79565b5b8135614d1d848260208601614c8f565b91505092915050565b600080fd5b600067ffffffffffffffff821115614d4657614d45614a8f565b5b614d4f82614a7e565b9050602081019050919050565b82818337600083830152505050565b6000614d7e614d7984614d2b565b614aef565b905082815260208101848484011115614d9a57614d99614d26565b5b614da5848285614d5c565b509392505050565b600082601f830112614dc257614dc1614a79565b5b8135614dd2848260208601614d6b565b91505092915050565b60008060008060008060c08789031215614df857614df76149f9565b5b6000614e0689828a01614a24565b9650506020614e1789828a01614a64565b9550506040614e2889828a01614a64565b945050606087013567ffffffffffffffff811115614e4957614e486149fe565b5b614e5589828a01614bfc565b935050608087013567ffffffffffffffff811115614e7657614e756149fe565b5b614e8289828a01614cf8565b92505060a087013567ffffffffffffffff811115614ea357614ea26149fe565b5b614eaf89828a01614dad565b9150509295509295509295565b600060208284031215614ed257614ed16149f9565b5b6000614ee084828501614a64565b91505092915050565b614ef281614a39565b82525050565b6000602082019050614f0d6000830184614ee9565b92915050565b600073ffffffffffffffffffffffffffffffffffffffff82169050919050565b6000614f3e82614f13565b9050919050565b614f4e81614f33565b8114614f5957600080fd5b50565b600081359050614f6b81614f45565b92915050565b600060208284031215614f8757614f866149f9565b5b6000614f9584828501614f5c565b91505092915050565b614fa781614f33565b82525050565b614fb681614b3b565b82525050565b6000608082019050614fd16000830187614ee9565b614fde6020830186614f9e565b614feb6040830185614fad565b614ff86060830184614fad565b95945050505050565b61500a81614a39565b82525050565b61501981614a03565b82525050565b600081519050919050565b600082825260208201905092915050565b6000819050602082019050919050565b61505481614b3b565b82525050565b6000615066838361504b565b60208301905092915050565b6000602082019050919050565b600061508a8261501f565b615094818561502a565b935061509f8361503b565b8060005b838110156150d05781516150b7888261505a565b97506150c283615072565b9250506001810190506150a3565b5085935050505092915050565b600081519050919050565b600082825260208201905092915050565b6000819050602082019050919050565b61511281614c56565b82525050565b60006151248383615109565b60208301905092915050565b6000602082019050919050565b6000615148826150dd565b61515281856150e8565b935061515d836150f9565b8060005b8381101561518e5781516151758882615118565b975061518083615130565b925050600181019050615161565b5085935050505092915050565b6151a481614f33565b82525050565b60008115159050919050565b6151bf816151aa565b82525050565b600081519050919050565b600082825260208201905092915050565b60005b838110156151ff5780820151818401526020810190506151e4565b8381111561520e576000848401525b50505050565b600061521f826151c5565b61522981856151d0565b93506152398185602086016151e1565b61524281614a7e565b840191505092915050565b6000610160830160008301516152666000860182615001565b5060208301516152796020860182615010565b50604083015161528c6040860182615001565b50606083015161529f6060860182615001565b50608083015184820360808601526152b7828261507f565b91505060a083015184820360a08601526152d1828261513d565b91505060c08301516152e660c086018261519b565b5060e08301516152f960e08601826151b6565b5061010083015161530e6101008601826151b6565b50610120830151615323610120860182615001565b5061014083015184820361014086015261533d8282615214565b9150508091505092915050565b60006020820190508181036000830152615364818461524d565b905092915050565b60008060408385031215615383576153826149f9565b5b600061539185828601614f5c565b92505060206153a285828601614a64565b9150509250929050565b600081519050919050565b600082825260208201905092915050565b6000819050602082019050919050565b600063ffffffff82169050919050565b6153f1816153d8565b82525050565b6000610140830160008301516154106000860182615001565b5060208301516154236020860182615001565b50604083015161543660408601826153e8565b5060608301516154496060860182615001565b5060808301518482036080860152615461828261507f565b91505060a083015161547660a086018261519b565b5060c083015161548960c08601826151b6565b5060e083015184820360e08601526154a18282615214565b9150506101008301516154b8610100860182615001565b506101208301516154cd610120860182615001565b508091505092915050565b60006154e483836153f7565b905092915050565b6000602082019050919050565b6000615504826153ac565b61550e81856153b7565b935083602082028501615520856153c8565b8060005b8581101561555c578484038952815161553d85826154d8565b9450615548836154ec565b925060208a01995050600181019050615524565b50829750879550505050505092915050565b6000602082019050818103600083015261558881846154f9565b905092915050565b6000806000606084860312156155a9576155a86149f9565b5b60006155b786828701614a64565b93505060206155c886828701614a64565b92505060406155d986828701614c7a565b9150509250925092565b6155ec816151aa565b82525050565b600060208201905061560760008301846155e3565b92915050565b6000610140830160008301516156266000860182615001565b5060208301516156396020860182615001565b50604083015161564c60408601826153e8565b50606083015161565f6060860182615001565b5060808301518482036080860152615677828261507f565b91505060a083015161568c60a086018261519b565b5060c083015161569f60c08601826151b6565b5060e083015184820360e08601526156b78282615214565b9150506101008301516156ce610100860182615001565b506101208301516156e3610120860182615001565b508091505092915050565b60006020820190508181036000830152615708818461560d565b905092915050565b61571981614a03565b82525050565b600082825260208201905092915050565b600061573b826151c5565b615745818561571f565b93506157558185602086016151e1565b61575e81614a7e565b840191505092915050565b60006101208201905061577f600083018c614ee9565b61578c602083018b615710565b615799604083018a614ee9565b6157a66060830189614ee9565b6157b36080830188614f9e565b6157c060a08301876155e3565b6157cd60c08301866155e3565b6157da60e0830185614ee9565b8181036101008301526157ed8184615730565b90509a9950505050505050505050565b60008160000b9050919050565b615813816157fd565b82525050565b600060208201905061582e600083018461580a565b92915050565b6000806040838503121561584b5761584a6149f9565b5b600061585985828601614f5c565b925050602061586a85828601614c7a565b9150509250929050565b60006060820190506158896000830186614ee9565b6158966020830185614fad565b6158a36040830184614fad565b949350505050565b6000806000606084860312156158c4576158c36149f9565b5b60006158d286828701614b7e565b93505060206158e386828701614b7e565b92505060406158f486828701614c7a565b9150509250925092565b615907816153d8565b811461591257600080fd5b50565b600081359050615924816158fe565b92915050565b600080600080600080600060e0888a031215615949576159486149f9565b5b60006159578a828b01614a64565b97505060206159688a828b01615915565b96505060406159798a828b01614a64565b955050606088013567ffffffffffffffff81111561599a576159996149fe565b5b6159a68a828b01614bfc565b945050608088013567ffffffffffffffff8111156159c7576159c66149fe565b5b6159d38a828b01614dad565b93505060a06159e48a828b01614a64565b92505060c06159f58a828b01614a64565b91505092959891949750929550565b60008060408385031215615a1b57615a1a6149f9565b5b6000615a2985828601614c7a565b9250506020615a3a85828601614f5c565b9150509250929050565b600081519050919050565b600082825260208201905092915050565b6000819050602082019050919050565b600061016083016000830151615a896000860182615001565b506020830151615a9c6020860182615010565b506040830151615aaf6040860182615001565b506060830151615ac26060860182615001565b5060808301518482036080860152615ada828261507f565b91505060a083015184820360a0860152615af4828261513d565b91505060c0830151615b0960c086018261519b565b5060e0830151615b1c60e08601826151b6565b50610100830151615b316101008601826151b6565b50610120830151615b46610120860182615001565b50610140830151848203610140860152615b608282615214565b9150508091505092915050565b6000615b798383615a70565b905092915050565b6000602082019050919050565b6000615b9982615a44565b615ba38185615a4f565b935083602082028501615bb585615a60565b8060005b85811015615bf15784840389528151615bd28582615b6d565b9450615bdd83615b81565b925060208a01995050600181019050615bb9565b50829750879550505050505092915050565b60006020820190508181036000830152615c1d8184615b8e565b905092915050565b615c2e816153d8565b82525050565b600061012082019050615c4a600083018c614ee9565b615c57602083018b614ee9565b615c64604083018a615c25565b615c716060830189614ee9565b615c7e6080830188614f9e565b615c8b60a08301876155e3565b81810360c0830152615c9d8186615730565b9050615cac60e0830185614ee9565b615cba610100830184614ee9565b9a9950505050505050505050565b7f6572726f72000000000000000000000000000000000000000000000000000000600082015250565b6000615cfe60058361571f565b9150615d0982615cc8565b602082019050919050565b60006020820190508181036000830152615d2d81615cf1565b9050919050565b7f4e487b7100000000000000000000000000000000000000000000000000000000600052601160045260246000fd5b6000615d6e82614a39565b915067ffffffffffffffff821415615d8957615d88615d34565b5b600182019050919050565b7f4e487b7100000000000000000000000000000000000000000000000000000000600052602260045260246000fd5b60006002820490506001821680615ddb57607f821691505b60208210811415615def57615dee615d94565b5b50919050565b6000615e0082614a39565b9150615e0b83614a39565b925082821015615e1e57615e1d615d34565b5b828203905092915050565b7f4e487b7100000000000000000000000000000000000000000000000000000000600052603260045260246000fdfea2646970667358221220825e8478e9a3d0c1729c4aa729e7b5221aa242ce637e74e7c616b3816a7f837a64736f6c634300080c0033",
  "immutableReferences": {},
  "source": "// SPDX-License-Identifier: GPL-3.0\npragma abicoder v2;\n\ncontract BindingContract {\n    struct Company {\n        uint64 companyId;\n        address companyAddress;\n        bytes16 name;\n        bytes16 phoneNo;\n    }\n\n    struct Municipality {\n        uint64 municipalityId;\n        address municipalityAddress;\n        bytes16 name;\n        bytes16 phoneNo;\n    }\n\n    struct BindingData {\n        uint64 bindingId;\n        bytes32 name;\n        uint64 startDate;\n        uint64 endDate;\n        bytes16[] details;\n        uint8[] points;\n        address municipalityAddress;\n        bool isCanceled;\n        bool isOpened;\n        uint64 _winnerId;\n        string tenderText;\n    }\n\n    struct RequestBinding {\n        uint64 requestId;\n        uint64 companyId;\n        uint32 price;\n        uint64 bindingId;\n        bytes16[] details;\n        address companyAddress;\n        bool isWinner;\n        string text;\n        uint64 startDate;\n        uint64 endDate;\n    }\n\n    //-------------------------------------------------------\n    uint64 bindingContractCount;\n    uint64 bindingRequestsCount;\n    //QmaWNmxFiRDbzQNCRRmwwj8NVNDmehYkmT9myTSKA6ToWr\n    uint64 companyCount;\n    uint64 municipalityCount;\n\n    constructor() {\n        bindingContractCount = 0;\n        bindingRequestsCount = 0;\n        companyCount = 0;\n        municipalityCount = 0;\n    }\n\n    mapping(address => Company) public company;\n    mapping(address => Municipality) public municipality;\n\n    function signUp(\n        bytes16 _name,\n        bytes16 _phoneNo,\n        uint8 _type\n    ) public payable {\n        if (getUserType() == -1) {\n            if (_type == 0) {\n                municipalityCount++;\n                municipality[msg.sender] = Municipality(\n                    municipalityCount,\n                    msg.sender,\n                    _name,\n                    _phoneNo\n                );\n            } else {\n                companyCount++;\n                company[msg.sender] = Company(\n                    companyCount,\n                    msg.sender,\n                    _name,\n                    _phoneNo\n                );\n            }\n        }\n    }\n\n    mapping(uint64 => BindingData) public bindingContracts;\n\n    function createBindingContract(\n        bytes32 _name,\n        uint64 _startDate,\n        uint64 _endDate,\n        bytes16[] memory _details,\n        uint8[] memory _points,\n        string memory _tenderText\n    ) public payable {\n        require(\n            _details.length == _points.length && getUserType() == 0,\n            \"error\"\n        );\n\n        bindingContractCount++;\n        bindingContracts[bindingContractCount] = BindingData(\n            bindingContractCount,\n            _name,\n            _startDate,\n            _endDate,\n            _details,\n            _points,\n            msg.sender,\n            false,\n            false,\n            0,\n            _tenderText\n        );\n    }\n\n    function getBindingById(uint64 bindingId)\n        public\n        view\n        returns (BindingData memory)\n    {\n        if (bindingId <= bindingContractCount)\n            return bindingContracts[bindingId];\n    }\n\n    function getBindings(uint8 _bidType, address _address)\n        external\n        view\n        returns (BindingData[] memory)\n    {\n        BindingData[] memory _bindings = new BindingData[](\n            bindingContractCount\n        );\n        address _deadAddress;\n        uint64 counter = 0;\n        for (uint64 i = 1; i <= bindingContractCount; i++) {\n            if (_bidType == 1) {\n                // get all binding\n                if (\n                    _address == _deadAddress ||\n                    _address == bindingContracts[i].municipalityAddress\n                ) {\n                    _bindings[i - 1] = bindingContracts[i];\n                    counter++;\n                }\n            } else if (_bidType == 2) {\n                // get active binding\n                if (\n                    isActive(i) &&\n                    !bindingContracts[i].isCanceled &&\n                    !bindingContracts[i].isOpened\n                )\n                    if (\n                        _address == _deadAddress ||\n                        _address == bindingContracts[i].municipalityAddress\n                    ) {\n                        _bindings[i - 1] = bindingContracts[i];\n                        counter++;\n                    }\n            } else if (_bidType == 3) {\n                // get ended binding\n                if (\n                    !isActive(i) &&\n                    !bindingContracts[i].isCanceled &&\n                    !bindingContracts[i].isOpened\n                )\n                    if (\n                        _address == _deadAddress ||\n                        _address == bindingContracts[i].municipalityAddress\n                    ) {\n                        _bindings[i - 1] = bindingContracts[i];\n                        counter++;\n                    }\n            } else if (_bidType == 4) {\n                // get opened binding\n\n                if (\n                    !isActive(i) &&\n                    !bindingContracts[i].isCanceled &&\n                    bindingContracts[i].isOpened\n                )\n                    if (\n                        _address == _deadAddress ||\n                        _address == bindingContracts[i].municipalityAddress\n                    ) {\n                        _bindings[i - 1] = bindingContracts[i];\n                        counter++;\n                    }\n            } else if (_bidType == 5) {\n                // get all binding\n                if (bindingContracts[i].isCanceled)\n                    if (\n                        _address == _deadAddress ||\n                        _address == bindingContracts[i].municipalityAddress\n                    ) {\n                        _bindings[i - 1] = bindingContracts[i];\n                        counter++;\n                    }\n            }\n        }\n        BindingData[] memory _bindings1 = new BindingData[](counter);\n        _bindings1 = _bindings;\n        delete _bindings;\n        return _bindings1;\n    }\n\n    function openCanceleTender(\n        uint64 _bindingId,\n        uint64 _requestId,\n        uint8 _type\n    ) public payable {\n        require(\n            _bindingId <= bindingContractCount &&\n                msg.sender ==\n                bindingContracts[_bindingId].municipalityAddress &&\n                !bindingContracts[_bindingId].isOpened &&\n                !bindingContracts[_bindingId].isCanceled,\n            \"error\"\n        );\n        {\n            if (_type == 0) {\n                // open\n\n                require(\n                    msg.sender ==\n                        bindingContracts[bindingRequests[_requestId].bindingId]\n                            .municipalityAddress &&\n                        !bindingContracts[bindingRequests[_requestId].bindingId]\n                            .isOpened &&\n                        !bindingContracts[bindingRequests[_requestId].bindingId]\n                            .isCanceled &&\n                        _requestId <= bindingRequestsCount &&\n                        bindingRequests[_requestId].bindingId == _bindingId &&\n                        !isActive(_bindingId),\"error\"\n                );\n                {\n                    bindingContracts[_bindingId].isOpened = true;\n                    bindingContracts[_bindingId]._winnerId = _requestId;\n                    bindingRequests[_requestId].isWinner = true;\n                }\n            } else if (_type == 1) {\n                bindingContracts[_bindingId].isCanceled = true;\n            }\n        }\n    }\n\n    function isActive(uint64 bindingId) public view returns (bool) {\n        if (bindingId <= bindingContractCount) {\n            if (\n                bindingContracts[bindingId].endDate >= block.timestamp &&\n                bindingContracts[bindingId].startDate <= block.timestamp\n            ) {\n                return true;\n            }\n        }\n        return false;\n    }\n\n    function getProfile(address _address, uint8 _type)\n        public\n        view\n        returns (\n            uint64 companyId,\n            bytes16 name,\n            bytes16 phoneNo\n        )\n    {\n        if (_type == 0) {\n            return (\n                municipality[_address].municipalityId,\n                municipality[_address].name,\n                municipality[_address].phoneNo\n            );\n        } else {\n            return (\n                company[_address].companyId,\n                company[_address].name,\n                company[_address].phoneNo\n            );\n        }\n    }\n\n    mapping(uint64 => RequestBinding) public bindingRequests;\n\n    function requestToBinding(\n        uint64 _companyId,\n        uint32 _price,\n        uint64 _bindingId,\n        bytes16[] memory _details,\n        string memory _text,\n        uint64 _startDate,\n        uint64 _endDate\n    ) public payable {\n        bool reqested = false;\n        for (uint64 i = 1; i <= bindingRequestsCount; i++) {\n            if (\n                bindingRequests[i].bindingId == _bindingId &&\n                bindingRequests[i].companyId == _companyId\n            ) {\n                reqested = true;\n                break;\n            }\n        }\n        require(\n            !reqested &&\n                !bindingContracts[_bindingId].isOpened &&\n                !bindingContracts[_bindingId].isCanceled &&\n                isActive(_bindingId) &&\n                _details.length <= getBindingById(_bindingId).details.length &&\n                getUserType() == 1,\n            \"error\"\n        );\n\n        bindingRequestsCount++;\n        bindingRequests[bindingRequestsCount] = RequestBinding(\n            bindingRequestsCount,\n            _companyId,\n            _price,\n            _bindingId,\n            _details,\n            msg.sender,\n            false,\n            _text,\n            _startDate,\n            _endDate\n        );\n    }\n\n    function getBindingRequestByRequestId(uint64 _requestId)\n        public\n        view\n        returns (RequestBinding memory)\n    {\n        if (!isActive(bindingRequests[_requestId].bindingId))\n            return bindingRequests[_requestId];\n    }\n\n    function getUserType() public view returns (int8) {\n        if (municipality[msg.sender].municipalityId != 0) {\n            return 0;\n        }\n        if (company[msg.sender].companyId != 0) {\n            return 1;\n        }\n        return -1;\n    }\n\n    function getCountOf(uint64 _type) public view returns (uint64) {\n        if (_type == 0) {\n            return municipalityCount;\n        } else if (_type == 1) {\n            return companyCount;\n        } else if (_type == 2) {\n            return bindingContractCount;\n        } else if (_type == 3) {\n            return bindingRequestsCount;\n        }\n        return 0;\n    }\n\n    function getContractsRequest(address _companyAddress, uint64 _bindingId)\n        public\n        view\n        returns (RequestBinding[] memory)\n    {\n        if (!isActive(_bindingId)) {\n            RequestBinding[] memory _contractRequests = new RequestBinding[](\n                bindingRequestsCount\n            );\n            uint64 counter = 0;\n            address _deadAddress;\n            for (uint64 i = 1; i <= bindingRequestsCount; i++) {\n                if (\n                    _companyAddress != _deadAddress &&\n                    _bindingId == 0 &&\n                    bindingRequests[i].companyAddress == _companyAddress\n                ) {\n                    _contractRequests[i - 1] = bindingRequests[i];\n                    counter++;\n                } else if (\n                    _companyAddress == _deadAddress &&\n                    _bindingId != 0 &&\n                    bindingRequests[i].bindingId == _bindingId\n                ) {\n                    _contractRequests[i - 1] = bindingRequests[i];\n                    counter++;\n                }\n            }\n            RequestBinding[] memory _contractRequests1 = new RequestBinding[](\n                counter\n            );\n            _contractRequests1 = _contractRequests;\n            delete _contractRequests;\n            return _contractRequests1;\n        }\n    }\n}\n",
  "sourcePath": "/Users/ahmed/WebstormProjects/contracts_nodejs/public/solidtiy/contracts/BindingContract.sol",
  "compiler": {
    "name": "solc",
    "version": "0.8.12+commit.f00d7308.Emscripten.clang"
  },
  "schemaVersion": "3.4.7",
  "updatedAt": "2022-07-29T23:24:43.000Z",
  "networkType": "ethereum",
  "devdoc": {
    "kind": "dev",
    "methods": {},
    "version": 1
  },
  "userdoc": {
    "kind": "user",
    "methods": {},
    "version": 1
  }
}